:020000040800F2
:10000000185000208DD00008BFCB0008C3CB0008DB
:10001000CBCB0008CDCB0008CFCB00080000000000
:10002000000000000000000000000000D1CB00082C
:10003000D3CB000800000000D5CB0008D7CB0008C8
:10004000DFCB0008DDD00008E1D00008E5D00008D3
:10005000E9D00008C1CB0008EDD00008F1D00008BD
:10006000F5D00008F9D00008FDD0000801D1000843
:1000700005D1000809D100080DD1000811D10008F0
:1000800015D1000819D100081DD1000821D10008A0
:1000900025D1000829D100082DD1000831D1000850
:1000A00035D1000839D100083DD1000841D1000800
:1000B00031CC000845D1000849D100084DD10008D5
:1000C00051D1000855D1000859D100085DD1000870
:1000D00061D10008E9CB000865D1000869D10008AA
:1000E0006DD1000871D1000875D1000879D10008E0
:1000F0007DD1000881D1000885D1000889D1000890
:100100008DD1000891D1000895D1000899D100083F
:100110009DD10008A1D10008A5D10008A9D10008EF
:10012000FDCB00082FCC000833CC0008ADD100086F
:10013000B1D10008B5D10008B9D10008BDD100087F
:10014000C1D10008C5D10008C9D10008CDD100082F
:10015000D1D10008D5D1000857CC0008D9D100086A
:10016000DDD10008E1D10008E5D10008E9D100089F
:10017000EDD10008F1D10008F5D100080000000021
:10018000F5CB0008F9D1000800690840884201D188
:10019000012000E00020C0B27047816170470A046E
:1001A000826170470100002008708E484861082075
:1001B00088618D48C86120220A62486210208862E6
:1001C0008A48486080228A60C86040200861884868
:1001D000C8624FF4005008630020C88700207047B1
:1001E00001000020704701000020087000207047C7
:1001F00038B586B004000121606802F090FB01214F
:10020000E06802F08CFB0121E06902F088FB01212B
:10021000606902F084FB0121606A02F080FB012129
:10022000E06A02F07CFB182100226D46280002F0F3
:1002300083FB012001900120029000200390012007
:10024000049000200590A06800906946606802F064
:100250004EFCA1686068FFF7A2FFA06900906946A4
:10026000606902F044FCA1696069FFF798FF206AA9
:1002700000906946E06902F03AFC216AE069FFF704
:100280008CFFA06A00906946606A02F030FCA16AA7
:10029000606AFFF782FF206B00906946E06A02F017
:1002A00026FC216BE06AFFF77AFF002001902069AD
:1002B00000906946E06802F01AFC2169E068FFF7E7
:1002C0006CFF012084F83600002007B030BD38B53F
:1002D00086B00400182100226D46280002F02CFB95
:1002E0000020019001200290002003900120049042
:1002F00000200590A06800906946606802F0F7FB56
:10030000A1686068FFF749FFA069009069466069CD
:1003100002F0EDFBA1696069FFF73FFF206A0090E2
:100320006946E06902F0E3FB216AE069FFF735FF07
:10033000A06A00906946606A02F0D9FBA16A606A0F
:10034000FFF72BFF216BE06AFFF729FF2069009080
:100350006946E06802F0CBFB2169E068FFF71DFF0A
:10036000002084F83600002007B030BDF8B5040046
:100370000F0015001E00002C07D01E4800688442A4
:1003800003D12000FFF70EFF11E0002C05D0002C58
:1003900003D12000FFF724FF09E0002C05D0002C3A
:1003A00003D12000FFF71FFF01E0012018E020002B
:1003B000FFF71EFF2800002801D0E56401E00E4889
:1003C000E0643800002801D0A76401E00A48A06476
:1003D0003000002801D0266501E008482065002093
:1003E000F2BD00000004024000080240000002408C
:1003F000000C0240A00000201BA1000823330008CD
:1004000070B504000025216AE069FFF7C6FE0026EA
:100410003000C0B2052812DAA1696069FFF7BDFE9D
:10042000042002F0DFFBE08FA16C8847A1696069BE
:10043000FFF7B5FEE08FA16C8847761CE8E7002047
:100440002070002070BD10B504002078012828D04D
:10045000022827D003285CD0042800F07F800528DC
:1004600000F0A180062800F0B180072800F0D380BA
:10047000082800F0E3800C2800F0E1800D2800F04F
:1004800015810E2800F037810F2800F059811028BF
:1004900000F06981112800F08B81122800F09B8107
:1004A0009AE19CE1216AE069FFF779FEA169606940
:1004B000FFF773FEE08FA16C8847A1696069FFF7C1
:1004C0006EFEE08FA16C8847216AE069FFF765FE48
:1004D000A1696069FFF761FEE08FA16C8847A1699F
:1004E0006069FFF75CFEE08FA16C8847216AE069D4
:1004F000FFF753FEA1696069FFF74FFEE08FA16C23
:100500008847A1696069FFF74AFEE08FA16C8847C0
:1005100065E1216AE069FFF740FEA1696069FFF7C4
:100520003CFEE08FA16C8847A1696069FFF737FE48
:10053000E08FA16C8847216AE069FFF72EFEA16970
:100540006069FFF72AFEE08FA16C8847A1696069A6
:10055000FFF725FEE08FA16C884740E1216AE06942
:10056000FFF71BFEA1696069FFF717FEE08FA16C22
:100570008847A1696069FFF712FEE08FA16C884788
:10058000216AE069FFF709FEA1696069FFF705FECE
:10059000E08FA16C8847A1696069FFF700FEE08FDA
:1005A000A16C88471BE1216AE069FFF7F6FDA169AC
:1005B0006069FFF7F2FDE08FA16C8847A16960696F
:1005C000FFF7EDFDE08FA16C884708E1216AE06943
:1005D000FFF7E3FDA1696069FFF7DFFDE08FA16C24
:1005E0008847A1696069FFF7DAFDE08FA16C884751
:1005F000216AE069FFF7D1FDA1696069FFF7CDFDD0
:10060000E08FA16C8847A1696069FFF7C8FDE08FA2
:10061000A16C8847E3E0216AE069FFF7BEFDA169AC
:100620006069FFF7BAFDE08FA16C8847A169606936
:10063000FFF7B5FDE08FA16C8847D0E0CFE0216ADD
:10064000E069FFF7ACFDA1696069FFF7A6FDE08FE7
:10065000A16C8847A1696069FFF7A1FDE08FA16CDB
:100660008847216AE069FFF798FDA1696069FFF793
:1006700094FDE08FA16C8847A1696069FFF78FFD49
:10068000E08FA16C8847216AE069FFF786FDA169C8
:100690006069FFF782FDE08FA16C8847A1696069FE
:1006A000FFF77DFDE08FA16C884798E0216AE06943
:1006B000FFF773FDA1696069FFF76FFDE08FA16C23
:1006C0008847A1696069FFF76AFDE08FA16C8847E0
:1006D000216AE069FFF761FDA1696069FFF75DFDCF
:1006E000E08FA16C8847A1696069FFF758FDE08F32
:1006F000A16C884773E0216AE069FFF74EFDA169AC
:100700006069FFF74AFDE08FA16C8847A1696069C5
:10071000FFF745FDE08FA16C8847216AE069FFF78C
:100720003CFDA1696069FFF738FDE08FA16C884747
:10073000A1696069FFF733FDE08FA16C88474EE047
:10074000216AE069FFF729FDA1696069FFF725FDCE
:10075000E08FA16C8847A1696069FFF720FDE08FF9
:10076000A16C88473BE0216AE069FFF716FDA169AB
:100770006069FFF712FDE08FA16C8847A16960698D
:10078000FFF70DFDE08FA16C8847216AE069FFF754
:1007900004FDA1696069FFF700FDE08FA16C884747
:1007A000A1696069FFF7FBFCE08FA16C884716E048
:1007B000216AE069FFF7F1FCA1696069FFF7EDFCD0
:1007C000E08FA16C8847A1696069FFF7E8FCE08FC2
:1007D000A16C884703E002E02000FFF711FE216AC8
:1007E000E069FFF7DCFCA1696069FFF7D6FCE08FE8
:1007F000A16C8847A1696069FFF7D1FCE08FA16C0B
:10080000884701202070002010BD10B5040020781A
:10081000012825D0022824D0032823D0042846D03C
:10082000052869D006287AD0072800F09D8008287E
:1008300000F0AD800C2800F0AB800D2800F0DF80C8
:100840000E2800F001810F2800F02381102800F00D
:100850003381112800F05581122800F0658164E190
:1008600078E177E1216AE069FFF797FCA1696069A7
:10087000FFF793FCE08FA16C8847A1696069FFF7DF
:100880008EFCE08FA16C8847216AE069FFF785FC48
:10089000A1696069FFF781FCE08FA16C8847A169BD
:1008A0006069FFF77CFCE08FA16C884752E1216A08
:1008B000E069FFF772FCA1696069FFF76EFCE08FE9
:1008C000A16C8847A1696069FFF769FCE08FA16CA2
:1008D0008847216AE069FFF760FCA1696069FFF75A
:1008E0005CFCE08FA16C8847A1696069FFF757FC49
:1008F000E08FA16C88472DE1216AE069FFF74DFC8C
:10090000A1696069FFF749FCE08FA16C8847A16984
:100910006069FFF744FCE08FA16C88471AE1216A07
:10092000E069FFF73AFCA1696069FFF736FCE08FE8
:10093000A16C8847A1696069FFF731FCE08FA16C69
:100940008847216AE069FFF728FCA1696069FFF721
:1009500024FCE08FA16C8847A1696069FFF71FFC48
:10096000E08FA16C8847F5E0216AE069FFF715FC8C
:10097000A1696069FFF711FCE08FA16C8847A1694C
:100980006069FFF70CFCE08FA16C8847E2E0E1E0D2
:10099000216AE069FFF703FCA1696069FFF7FDFBCD
:1009A000E08FA16C8847A1696069FFF7F8FBE08FD1
:1009B000A16C8847216AE069FFF7EFFBA1696069D4
:1009C000FFF7EBFBE08FA16C8847A1696069FFF737
:1009D000E6FBE08FA16C8847216AE069FFF7DDFB49
:1009E000A1696069FFF7D9FBE08FA16C8847A16915
:1009F0006069FFF7D4FBE08FA16C8847AAE0216A09
:100A0000E069FFF7CAFBA1696069FFF7C6FBE08FE9
:100A1000A16C8847A1696069FFF7C1FBE08FA16CF9
:100A20008847216AE069FFF7B8FBA1696069FFF7B1
:100A3000B4FBE08FA16C8847A1696069FFF7AFFB49
:100A4000E08FA16C884785E0216AE069FFF7A5FB8C
:100A5000A1696069FFF7A1FBE08FA16C8847A169DC
:100A60006069FFF79CFBE08FA16C8847216AE06911
:100A7000FFF793FBA1696069FFF78FFBE08FA16C23
:100A80008847A1696069FFF78AFBE08FA16C8847FE
:100A900060E0216AE069FFF780FBA1696069FFF708
:100AA0007CFBE08FA16C8847A1696069FFF777FB49
:100AB000E08FA16C88474DE0216AE069FFF76DFB8C
:100AC000A1696069FFF769FBE08FA16C8847A169A4
:100AD0006069FFF764FBE08FA16C8847216AE069D9
:100AE000FFF75BFBA1696069FFF757FBE08FA16C23
:100AF0008847A1696069FFF752FBE08FA16C8847C6
:100B000028E0216AE069FFF748FBA1696069FFF707
:100B100044FBE08FA16C8847A1696069FFF73FFB48
:100B2000E08FA16C884715E014E02000FFF768FC17
:100B3000216AE069FFF733FBA1696069FFF72DFBCC
:100B4000E08FA16C8847A1696069FFF728FBE08FFF
:100B5000A16C88472078022811D0216AE069FFF74C
:100B60001CFBA1696069FFF718FBE08FA16C884747
:100B7000A1696069FFF713FBE08FA16C8847022031
:100B80002070002010BD10B504002078012826D068
:100B9000022837D0032836D0042835D005286AD05B
:100BA000062800F08D80072800F0C180082800F09A
:100BB000E3800C2800F0F3800D2800F039810E2826
:100BC00000F07F810F2800F0B381102800F0D5815C
:100BD000112800F00982122800F02B823CE2216AE1
:100BE000E069FFF7DAFAA1696069FFF7D6FAE08FEA
:100BF000A16C8847A1696069FFF7D1FAE08FA16C09
:100C0000884750E24FE24EE2216AE069FFF7C5FAF9
:100C1000A1696069FFF7C1FAE08FA16C8847A169FB
:100C20006069FFF7BCFAE08FA16C8847216AE06930
:100C3000FFF7B3FAA1696069FFF7AFFAE08FA16C23
:100C40008847A1696069FFF7AAFAE08FA16C88471D
:100C5000216AE069FFF7A1FAA1696069FFF79DFACF
:100C6000E08FA16C8847A1696069FFF798FAE08F6F
:100C7000A16C884717E2216AE069FFF78EFAA16943
:100C80006069FFF78AFAE08FA16C8847A169606903
:100C9000FFF785FAE08FA16C8847216AE069FFF7CA
:100CA0007CFAA1696069FFF778FAE08FA16C884748
:100CB000A1696069FFF773FAE08FA16C8847F2E1E0
:100CC000216AE069FFF769FAA1696069FFF765FACF
:100CD000E08FA16C8847A1696069FFF760FAE08F37
:100CE000A16C8847216AE069FFF757FAA16960693A
:100CF000FFF753FAE08FA16C8847A1696069FFF79D
:100D00004EFAE08FA16C8847216AE069FFF745FA47
:100D1000A1696069FFF741FAE08FA16C8847A1697A
:100D20006069FFF73CFAE08FA16C8847BBE1216A5C
:100D3000E069FFF732FAA1696069FFF72EFAE08FE8
:100D4000A16C8847A1696069FFF729FAE08FA16C5F
:100D50008847216AE069FFF720FAA1696069FFF717
:100D60001CFAE08FA16C8847A1696069FFF717FA48
:100D7000E08FA16C884796E1216AE069FFF70DFAE0
:100D8000A1696069FFF709FAE08FA16C8847A16942
:100D90006069FFF704FAE08FA16C884783E1216A5C
:100DA000E069FFF7FCF9A1696069FFF7F6F9E08FE8
:100DB000A16C8847A1696069FFF7F1F9E08FA16C28
:100DC0008847216AE069FFF7E8F9A1696069FFF7E0
:100DD000E4F9E08FA16C8847A1696069FFF7DFF94A
:100DE000E08FA16C8847216AE069FFF7D6F9A16915
:100DF0006069FFF7D2F9E08FA16C8847A16960694B
:100E0000FFF7CDF9E08FA16C8847216AE069FFF711
:100E1000C4F9A1696069FFF7C0F9E08FA16C884748
:100E2000A1696069FFF7BBF9E08FA16C88473AE1DF
:100E3000216AE069FFF7B1F9A1696069FFF7ADF9CF
:100E4000E08FA16C8847A1696069FFF7A8F9E08F7E
:100E5000A16C8847216AE069FFF79FF9A169606981
:100E6000FFF79BF9E08FA16C8847A1696069FFF7E4
:100E700096F9E08FA16C8847216AE069FFF78DF948
:100E8000A1696069FFF789F9E08FA16C8847A169C2
:100E90006069FFF784F9E08FA16C8847216AE069F7
:100EA000FFF77BF9A1696069FFF777F9E08FA16C23
:100EB0008847A1696069FFF772F9E08FA16C8847E4
:100EC000F1E0216AE069FFF768F9A1696069FFF75D
:100ED00064F9E08FA16C8847A1696069FFF75FF949
:100EE000E08FA16C8847216AE069FFF756F9A16994
:100EF0006069FFF752F9E08FA16C8847A1696069CA
:100F0000FFF74DF9E08FA16C8847216AE069FFF790
:100F100044F9A1696069FFF740F9E08FA16C884747
:100F2000A1696069FFF73BF9E08FA16C8847BAE0DF
:100F3000216AE069FFF731F9A1696069FFF72DF9CE
:100F4000E08FA16C8847A1696069FFF728F9E08FFD
:100F5000A16C8847216AE069FFF71FF9A169606900
:100F6000FFF71BF9E08FA16C8847A1696069FFF763
:100F700016F9E08FA16C884795E0216AE069FFF7D8
:100F80000CF9A1696069FFF708F9E08FA16C884747
:100F9000A1696069FFF703F9E08FA16C8847216AB6
:100FA000E069FFF7FAF8A1696069FFF7F6F8E08FEA
:100FB000A16C8847A1696069FFF7F1F8E08FA16C27
:100FC0008847216AE069FFF7E8F8A1696069FFF7DF
:100FD000E4F8E08FA16C8847A1696069FFF7DFF84A
:100FE000E08FA16C88475EE0216AE069FFF7D5F8E1
:100FF000A1696069FFF7D1F8E08FA16C8847A1690A
:101000006069FFF7CCF8E08FA16C8847216AE0693E
:10101000FFF7C3F8A1696069FFF7BFF8E08FA16C23
:101020008847A1696069FFF7BAF8E08FA16C88472B
:1010300039E0216AE069FFF7B0F8A1696069FFF75C
:10104000ACF8E08FA16C8847A1696069FFF7A7F849
:10105000E08FA16C884726E02000FFF7D1F9216AD4
:10106000E069FFF79CF8A1696069FFF796F8E08FE7
:10107000A16C8847A1696069FFF791F8E08FA16CC6
:101080008847216AE069FFF788F8A1696069FFF77E
:1010900084F8E08FA16C8847A1696069FFF77FF849
:1010A000E08FA16C88472078032811D0216AE0697D
:1010B000FFF775F8A1696069FFF76FF8E08FA16C21
:1010C0008847A1696069FFF76AF8E08FA16C8847DB
:1010D00003202070002010BD10B5040020780128E6
:1010E00028D002284BD003285CD0042800F0A3802D
:1010F000052800F0E980062800F01D81072800F08F
:101100006381082800F097810C2800F0B9810D2830
:1011100000F0B7810E2800F0B5810F2800F0FB81A8
:10112000102800F02F82112800F07582122800F09C
:10113000A982CCE2216AE069FFF72FF8A169606912
:10114000FFF72BF8E08FA16C8847A1696069FFF772
:1011500026F8E08FA16C8847216AE069FFF71DF847
:10116000A1696069FFF719F8E08FA16C8847A16950
:101170006069FFF714F8E08FA16C8847E0E2216A0C
:10118000E069FFF70AF8A1696069FFF706F8E08FE8
:10119000A16C8847A1696069FFF701F8E08FA16C35
:1011A0008847CDE2216AE069FEF7F7FFA16960692F
:1011B000FEF7F3FFE08FA16C8847A1696069FEF735
:1011C000EEFFE08FA16C8847216AE069FEF7E5FF3A
:1011D000A1696069FEF7E1FFE08FA16C8847A16912
:1011E0006069FEF7DCFFE08FA16C8847216AE06947
:1011F000FEF7D3FFA1696069FEF7CFFFE08FA16C16
:101200008847A1696069FEF7CAFFE08FA16C884733
:10121000216AE069FEF7C1FFA1696069FEF7BDFFC1
:10122000E08FA16C8847A1696069FEF7B8FFE08F85
:10123000A16C884784E2216AE069FEF7AEFFA169EC
:101240006069FEF7AAFFE08FA16C8847A169606919
:10125000FEF7A5FFE08FA16C8847216AE069FEF7E1
:101260009CFFA1696069FEF798FFE08FA16C884739
:10127000A1696069FEF793FFE08FA16C8847216A3E
:10128000E069FEF78AFFA1696069FEF786FFE08FDB
:10129000A16C8847A1696069FEF781FFE08FA16CAE
:1012A0008847216AE069FEF778FFA1696069FEF767
:1012B00074FFE08FA16C8847A1696069FEF76FFF3A
:1012C000E08FA16C88473BE2216AE069FEF765FF89
:1012D000A1696069FEF761FFE08FA16C8847A16991
:1012E0006069FEF75CFFE08FA16C8847216AE069C6
:1012F000FEF753FFA1696069FEF74FFFE08FA16C15
:101300008847A1696069FEF74AFFE08FA16C8847B2
:10131000216AE069FEF741FFA1696069FEF73DFFC0
:10132000E08FA16C8847A1696069FEF738FFE08F04
:10133000A16C884704E2216AE069FEF72EFFA169EB
:101340006069FEF72AFFE08FA16C8847A169606998
:10135000FEF725FFE08FA16C8847216AE069FEF760
:101360001CFFA1696069FEF718FFE08FA16C884738
:10137000A1696069FEF713FFE08FA16C8847216ABD
:10138000E069FEF70AFFA1696069FEF706FFE08FDA
:10139000A16C8847A1696069FEF701FFE08FA16C2D
:1013A0008847216AE069FEF7F8FEA1696069FEF7E7
:1013B000F4FEE08FA16C8847A1696069FEF7EFFE3B
:1013C000E08FA16C8847BBE1216AE069FEF7E5FE8A
:1013D000A1696069FEF7E1FEE08FA16C8847A16911
:1013E0006069FEF7DCFEE08FA16C8847216AE06946
:1013F000FEF7D3FEA1696069FEF7CFFEE08FA16C16
:101400008847A1696069FEF7CAFEE08FA16C884732
:10141000216AE069FEF7C1FEA1696069FEF7BDFEC1
:10142000E08FA16C8847A1696069FEF7B8FEE08F84
:10143000A16C884784E1216AE069FEF7AEFEA169EC
:101440006069FEF7AAFEE08FA16C8847A169606918
:10145000FEF7A5FEE08FA16C8847216AE069FEF7E0
:101460009CFEA1696069FEF798FEE08FA16C884739
:10147000A1696069FEF793FEE08FA16C88475FE188
:101480005EE15DE1216AE069FEF787FEA1696069BE
:10149000FEF783FEE08FA16C8847A1696069FEF7C3
:1014A0007EFEE08FA16C8847216AE069FEF775FE39
:1014B000A1696069FEF771FEE08FA16C8847A169A0
:1014C0006069FEF76CFEE08FA16C8847216AE069D5
:1014D000FEF763FEA1696069FEF75FFEE08FA16C15
:1014E0008847A1696069FEF75AFEE08FA16C8847C2
:1014F000216AE069FEF751FEA1696069FEF74DFEC1
:10150000E08FA16C8847A1696069FEF748FEE08F13
:10151000A16C884714E1216AE069FEF73EFEA169EB
:101520006069FEF73AFEE08FA16C8847A1696069A7
:10153000FEF735FEE08FA16C8847216AE069FEF76F
:101540002CFEA1696069FEF728FEE08FA16C884738
:10155000A1696069FEF723FEE08FA16C8847216ACC
:10156000E069FEF71AFEA1696069FEF716FEE08FDA
:10157000A16C8847A1696069FEF711FEE08FA16C3C
:101580008847DDE0216AE069FEF707FEA16960692E
:10159000FEF703FEE08FA16C8847A1696069FEF742
:1015A000FEFDE08FA16C8847216AE069FEF7F5FD3A
:1015B000A1696069FEF7F1FDE08FA16C8847A16920
:1015C0006069FEF7ECFDE08FA16C8847216AE06955
:1015D000FEF7E3FDA1696069FEF7DFFDE08FA16C16
:1015E0008847A1696069FEF7DAFDE08FA16C884742
:1015F000216AE069FEF7D1FDA1696069FEF7CDFDC2
:10160000E08FA16C8847A1696069FEF7C8FDE08F93
:10161000A16C884794E0216AE069FEF7BEFDA169EC
:101620006069FEF7BAFDE08FA16C8847A169606927
:10163000FEF7B5FDE08FA16C8847216AE069FEF7EF
:10164000ACFDA1696069FEF7A8FDE08FA16C884739
:10165000A1696069FEF7A3FDE08FA16C8847216A4C
:10166000E069FEF79AFDA1696069FEF796FDE08FDB
:10167000A16C8847A1696069FEF791FDE08FA16CBC
:1016800088475DE0216AE069FEF787FDA16960692E
:10169000FEF783FDE08FA16C8847A1696069FEF7C2
:1016A0007EFDE08FA16C8847216AE069FEF775FD39
:1016B000A1696069FEF771FDE08FA16C8847A1699F
:1016C0006069FEF76CFDE08FA16C884738E0200070
:1016D000FEF796FE216AE069FEF761FDA169606987
:1016E000FEF75BFDE08FA16C8847A1696069FEF79A
:1016F00056FDE08FA16C8847216AE069FEF74DFD39
:10170000A1696069FEF749FDE08FA16C8847A16976
:101710006069FEF744FDE08FA16C8847216AE069AB
:10172000FEF73BFDA1696069FEF737FDE08FA16C14
:101730008847A1696069FEF732FDE08FA16C884798
:1017400020780D2811D0216AE069FEF728FDA169F3
:101750006069FEF722FDE08FA16C8847A16960698E
:10176000FEF71DFDE08FA16C88470D202070002042
:1017700010BD2DE9F0470400894615001E005FF0FA
:10178000000A00272000FFF7A7FC5FF00008404692
:101790002900C0B2C9B288422FD2A1696069FEF7A0
:1017A000FCFC042001F01EFAE08FA16C8847A169BF
:1017B0006069FEF7F4FCE08FA16C88475FEAC970AE
:1017C00004D5A1686068FEF7E8FC03E0A1686068E2
:1017D000FEF7E5FC5FFA89F95FEA59092169E068DB
:1017E000FEF7D2FC002803D0012010FA08F000E038
:1017F0000020074318F10108C9E70E2020703000CF
:10180000C0B2002802D02000FEF71DFE2000FEF727
:10181000FCFFFFB2012F01D1002000E00120C0B287
:10182000BDE8F0872DE9F0470400894615001E0049
:101830005FF0000A00272000FFF7A5F95FF000081D
:101840002800C0B280452DD2A1696069FEF7A5FCD1
:10185000042001F0C7F9E08FA16C8847A169606995
:10186000FEF79DFCE08FA16C88475FEAC97004D544
:10187000A1686068FEF791FC03E0A1686068FEF76C
:101880008EFC5FEA59092169E068FEF77DFC0028BB
:1018900003D0012010FA08F000E00020074318F1FF
:1018A0000108CDE7042020703000C0B2002802D02B
:1018B0002000FEF7C8FD2000FEF7A7FF3800BDE8B6
:1018C000F08738B504000D00012304220C2120000C
:1018D000FFF74FFF012301222900C9B22000FFF7C3
:1018E000A1FF002032BD10B50400002304220B210B
:1018F0002000FFF73EFF2000FFF745F900230522F7
:101900000D212000FFF78EFF002310220021200070
:10191000FFF788FF01212000FFF7D3FF002010BD53
:1019200010B504000123042204212000FFF721FF49
:101930002000FFF728F9012310224AF2703120001D
:10194000FFF770FF002801D1002000E00120C0B2A5
:1019500010BD38B504000025012304220521200014
:10196000FFF707FF2000FFF70EF901230F224FF4C6
:101970000C512000FFF756FF01230F224FF44C516A
:101980002000FFF74FFF0100080080B2B0F50C5FA8
:1019900001D0012000E0002032BD70B5040020001D
:1019A000FFF7D7FF0500280080B2002801D00120F2
:1019B0001FE00023042204212000FFF7DAFE2000AC
:1019C000FFF7E1F80023102200212000FFF72AFF93
:1019D000060000212000FFF774FF2000FEF777FCCF
:1019E000300080B24AF27031884201D0022000E01B
:1019F000002070BD10B5040094F83600002802D114
:101A00002000FEF7F5FB2000FFF76DFF2000FFF739
:101A100087FF0100C9B2002903D1012184F83510E4
:101A200002E0002184F83510C0B210BD10B50400EA
:101A3000002084F837000020A087002084F83500BB
:101A4000002084F83400200000F034F82000FFF774
:101A5000A4FF10BD70B504000025002694F83500E1
:101A6000002816D0206D80470500606C854206D2A4
:101A70005FF0FF31606C091A69180E0002E0606CBB
:101A8000281A0600B4F84000B04202D22000FFF746
:101A9000CDFF70BD80B547480068FFF7DBFF01BD93
:101AA00080B50020FFF7D6FF01BD80B50020FFF70D
:101AB000D1FF01BD10B50400002C07D03D480068DF
:101AC000844203D13C4801F0AFF911E0002C05D06D
:101AD000002C03D1394801F0A7F909E0002C05D00A
:101AE000002C03D1364801F09FF901E0012000E00D
:101AF000002010BD10B504004FF4FA70A4F84000A7
:101B0000206D80476064002010BD38B504000D00D2
:101B1000A4F84050206D80476064002032BD2DE95C
:101B2000F84F06008A465FF0000B00275FF00008C0
:101B30005FF0000900240025306D002802D0306DD0
:101B40008047814600230F22514689B23000FFF7BB
:101B500069FE0700B80501D5002027E0306D002898
:101B60001AD0306D80478046C84509D25FF0FF30FB
:101B7000B0EB090018EB0000002104000D0004E0A8
:101B8000B8EB0900002104000D00002D0BD301D893
:101B9000652C08D3022009E018F1010809488045A6
:101BA00001D3032002E001F045FACBE7C0B2BDE863
:101BB000F28F0000A0000020951A0008A11A00086A
:101BC000AB1A0008A186010038B5040000250123E6
:101BD000042205212000FFF7CCFD2000FEF7D3FFF3
:101BE00001230F224FF40E512000FFF71BFE0023AC
:101BF0000F224FF446512000FFF714FE00230F225E
:101C00004FF44E512000FFF70DFE00230F224FF43A
:101C10004E512000FFF706FE4FF44E512000FFF713
:101C20007EFF32BDF8B505000C000026002700231A
:101C3000042201212800FFF79CFD2800FEF7A3FFE6
:101C40000123202200212800FFF7ECFD010021F0F4
:101C50007041002C0BD0002006003000C0B20428D8
:101C600005DA3000C0B22154090A761CF5E70020DD
:101C7000F2BD2DE9F04104000D0000265FF00008E0
:101C80000123042205212000FFF773FD2000FEF749
:101C90007AFF01230F2242F208312000FFF7C2FD34
:101CA00000273800C0B203281CDA01230F223900B4
:101CB000C9B211F540712000FFF7B4FD00230F22D7
:101CC0004FF448512000FFF7ADFD00230F224FF4E1
:101CD0004C512000FFF7A6FD804685F800806D1C62
:101CE0007F1CDEE70020BDE8F0812DE9F843040009
:101CF0000D00160000275FF00009012304220521D2
:101D00002000FFF736FD2000FEF73DFF01230F22E4
:101D100042F208312000FFF785FD5FF000084046E1
:101D20003100C0B2C9B288421DD201230F22414600
:101D3000C9B211F540712000FFF774FD00230F2296
:101D40004FF458512000FFF76DFD00230F224FF490
:101D50005C512000FFF766FD814685F800906D1C00
:101D600018F10108DBE70020BDE8F2832DE9F04718
:101D700004008946150000260027012304220521BE
:101D80002000FFF7F6FC2000FEF7FDFE01230F22E6
:101D900042F204312000FFF745FD01230F224FF4EA
:101DA00048512000FFF73EFD01230F224FF44C5114
:101DB0002000FFF737FD804689F8008019F1010AFD
:101DC00001230F224FF478512000FFF72BFD012350
:101DD0000F224FF47C512000FFF724FD81468AF842
:101DE00000901AF1010A2800C0B2002813D0012384
:101DF0000F224FF468512000FFF714FD01230F223A
:101E00004FF46C512000FFF70DFD81468AF80090D9
:101E10001AF1010A02E0FF208AF800000020BDE864
:101E2000F08770B504000D0000260123042205216F
:101E30002000FFF79EFC2000FEF7A5FE01230F22E5
:101E400042F204312000FFF7EDFC01230F224FF492
:101E500058512000FFF7E6FC01230F224FF45C519C
:101E60002000FFF7DFFC020052F0FC002870691C24
:101E7000002070BD2DE9F04705000E0017005FF04F
:101E800000085FF00009D80701D5022067E09BB287
:101E90005B081C0095F83400002803D095F8350045
:101EA000072815D00123042205212800FFF761FC33
:101EB0002800FEF768FE01230F2242F208312800B5
:101EC000FFF7B0FC012085F83400072085F83500C5
:101ED0005FF0000A5046C0B2210080B289B2884249
:101EE0003CD201230F223800C0B250FA8AF151F4DB
:101EF00040712800FFF796FC00230F224FF4485151
:101F00002800FFF78FFC00230F224FF44C512800CC
:101F1000FFF788FC804686F80080761C01230F229C
:101F20003800C0B250FA8AF151F440712800FFF72E
:101F300079FC00230F224FF458512800FFF772FC60
:101F400000230F224FF45C512800FFF76BFC814601
:101F500086F80090761C1AF1010ABBE70020BDE864
:101F6000F0872DE9F84304000F0015005FF000082A
:101F700000260123042205212000FFF7FAFB2000A0
:101F8000FEF701FE01230F224FF40D512000FFF751
:101F900049FC01230F22397851F498512000FFF7B2
:101FA00041FC7F1C01230F224FF44C512000FFF70E
:101FB00039FC01230F224FF444512000FFF732FC7B
:101FC00001230F224FF44C512000FFF72BFC01237B
:101FD0000F224FF44C512000FFF724FC4FF44C51DA
:101FE0002000FFF79CFD81464846C0B2002801D082
:101FF000012066E001230F22397851F49851200026
:10200000FFF710FC7F1C01230F224FF45C512000CE
:10201000FFF708FC01230F224FF454512000FFF773
:1020200001FC01230F224FF45C512000FFF7FAFB63
:1020300001230F224FF45C512000FFF7F3FB4FF414
:102040005C512000FFF76BFD80464046C0B200287F
:1020500001D0022035E02800C0B200282FD0012393
:102060000F22397851F498512000FFF7DBFB012350
:102070000F224FF46C512000FFF7D4FB01230F22F5
:102080004FF464512000FFF7CDFB01230F224FF4E2
:102090006C512000FFF7C6FB01230F224FF46C5157
:1020A0002000FFF7BFFB4FF45C512000FFF737FD26
:1020B00080464046C0B2002801D0032001E04046DF
:1020C000C0B2BDE8F28370B504000D000026012304
:1020D000042205212000FFF74CFB2000FEF753FDF2
:1020E00001230F2242F220312000FFF79BFB012346
:1020F0000F222900C9B251F49E512000FFF792FB34
:1021000001230F224FF44C512000FFF78BFB0123DA
:102110000F224FF444512000FFF784FB01230F22CC
:102120004FF44C512000FFF77DFB01230F224FF4A9
:102130004C512000FFF776FB4FF44C512000FFF785
:10214000EEFC002801D1002000E00520C0B270BDE7
:102150002DE9F84F05000E00170098460A9C5FF025
:1021600000095FF0000A95F83400002803D095F8C4
:102170003500052815D00123042205212800FFF78A
:10218000F8FA2800FEF7FFFC01230F2242F2033188
:102190002800FFF747FB012085F83400052085F86B
:1021A00035005FF0000B5846210080B289B28842AA
:1021B00035D201230F223900C9B251F4E061280061
:1021C000FFF730FB01230F224146C9B251F44071A1
:1021D0002800FFF727FB00230F224146C9B251F424
:1021E0004C512800FFF71EFB01230F224FF44851EA
:1021F0002800FFF717FB00230F224FF44C51280053
:10220000FFF710FB86F80090761C18F10108404695
:10221000C0B2002800D17F1C1BF1010BC3E70020D6
:10222000BDE8F28FF8B504000D0016001F0038005D
:1022300080B200903300DBB2320092B2120AD2B206
:1022400029002000FFF784FFF2BD2DE9F0470400CC
:102250000D0016001F005FF000085FF0000994F801
:102260003400002803D094F83500082815D0012345
:10227000042205212000FFF77CFA2000FEF783FCF2
:1022800001230F2242F211312000FFF7CBFA012087
:1022900084F83400082084F8350001230F22290037
:1022A000C9B251F4E0612000FFF7BCFA5FF0000A08
:1022B0005046C0B2618F80B288422AD201230F22D9
:1022C0003100C9B251F440712000FFF7ABFA01238D
:1022D0000F22397851F498512000FFF7A3FA7F1CA0
:1022E00001230F224FF45C512000FFF79BFA0123DA
:1022F0000F224FF4EE412000FFF794FA01230F2242
:102300004FF45C512000FFF78DFA761C1AF1010A98
:10231000CEE70020BDE8F08710B5040001230F22AE
:102320004FF44C512000FFF77DFA01230F224FF4A8
:1023300044512000FFF776FA01230F224FF44C514D
:102340002000FFF76FFA01230F224FF44C512000B9
:10235000FFF768FA4FF44C512000FFF7E0FB10BD87
:102360002DE9F84F83460D0016001F000A9C5FF010
:1023700000085FF000095FF0000A9BF835000028B4
:1023800003D15846FFF736FB80464046C0B20028CE
:1023900047D1A4B2BBF83A0094FBF0F45846FFF7DB
:1023A000A9FB3000C0B2000250FA87F0814600203D
:1023B00082465046210080B289B288422CD22B003E
:1023C0004A46D2B24946090AC9B25846FFF73DFF0C
:1023D000C0B2002802D15FF0000801E05FF00208FF
:1023E0005846FFF799FFC0B2002802D15FF00008FD
:1023F00001E05FF003084046C0B2002802D004208C
:10240000804609E0BBF83A0019EB0009BBF83A0036
:1024100005441AF1010ACCE764215846FFF775FB21
:1024200001E0012080464046C0B2BDE8F28FF8B519
:1024300004000D0016001F00BDF8180000903B00BE
:10244000DBB23200D2B229002000FFF789FFF2BDD3
:102450002DE9F84F05000E00170098460A9C5FF022
:1024600000095FF0000A95F83400002803D095F8C1
:102470003500062815D00123042205212800FFF786
:1024800078F92800FEF77FFB01230F2242F2023188
:102490002800FFF7C7F9012085F83400062085F8E9
:1024A00035003800C0B2002808D001230F223900BF
:1024B000C9B251F430612800FFF7B4F95FF0000BA6
:1024C0005846BDF82C1080B2884246D201230F2214
:1024D0004146C9B251F4E0612800FFF7A3F9012396
:1024E0000F222100C9B251F440712800FFF79AF978
:1024F00001230F224FF448512800FFF793F90023DE
:102500000F224FF458512800FFF78CF9824686F8C5
:1025100000A0761C00230F224FF45C512800FFF727
:1025200081F9814686F80090761C641C2000C0B2B8
:1025300000280FD118F101084046C0B2002809D187
:102540007F1C01230F223900C9B251F430612800E9
:10255000FFF768F91BF1010BB2E70020BDE8F28F2D
:10256000FEB504000D0016001F00380080B2019077
:102570003000C0B2009033001B0ADBB23200120CF4
:10258000D2B229002000FFF763FFFEBD2DE9F84F0E
:1025900004000D0016001F00DDF828800B995FF085
:1025A00000095FF0000AC80701D5022081E089B266
:1025B0004908ADF82C1094F83400002803D094F8A2
:1025C0003500092815D00123042205212000FFF73A
:1025D000D0F82000FEF7D7FA01230F2242F2103183
:1025E0002000FFF71FF9012084F83400092084F847
:1025F0003500A08F002815D12800C0B2002808D0CF
:1026000001230F222900C9B251F430612000FFF7E5
:1026100009F901230F222900C9B251F4E061200019
:10262000FFF700F95FF0000B5846C0B2BDF82C1060
:1026300080B2884237D201230F223900C9B251F447
:1026400040712000FFF7EEF801230F2298F80010E8
:1026500051F498512000FFF7E5F818F10108012323
:102660000F2298F8001051F4B8512000FFF7DAF863
:1026700018F1010801230F224FF45C512000FFF7ED
:10268000D1F801230F224FF4EE412000FFF7CAF8E2
:1026900001230F224FF45C512000FFF7C3F87F1C89
:1026A0001BF1010BC0E7A18FBDF82C004118A187D9
:1026B0000020BDE8F28F10B5040001230F224FF473
:1026C0005C512000FFF7AEF801230F224FF4545164
:1026D0002000FFF7A7F801230F224FF45C512000E0
:1026E000FFF7A0F801230F224FF45C512000FFF701
:1026F00099F84FF45C512000FFF711FA10BD2DE955
:10270000FE4F05000E00170098460C9C5FF0000A73
:102710005FF0000995F83500002803D12800FFF785
:1027200069F982465046C0B2002831D12800FFF72F
:10273000E1F9BDF83400019000962300DBB2424677
:10274000D2B23900C9B22800FFF720FFC0B200287A
:1027500002D15FF0000B01E05FF0010B5846C0B200
:10276000002810D1A88F298F88420CD12800FFF7AC
:10277000A2FF0021A987C0B2002802D15FF0000BA0
:1027800001E05FF0020B64212800FFF7BEF901E0D1
:102790005FF0010B5846C0B2BDE8FE8F2DE9FF4F38
:1027A00081B006000E9D5FF0000B0020ADF8000028
:1027B0005FF0000A00275FF000089DF8080080B273
:1027C00000029DF80C1050FA81F99DF8100080B2BB
:1027D000000250FA85F0ADF80000484680B200F0E3
:1027E000DEFC0400002C02D1012083462BE00020F7
:1027F00007003800BDF8001080B2884223D24B4653
:102800009BB2424621003000FFF7AAFE82465046A6
:10281000C0B2002802D05FF0020B14E04A4692B228
:10282000FF21200000F048FD83465846C0B2002832
:1028300002D00320834606E0484680B2400818FADA
:1028400080F87F1CD5E7200000F09EFC5846C0B2FF
:1028500005B0BDE8F08F2DE9F84F05000E00170018
:102860005FF0000B5FF000085FF000093000C0B2BD
:1028700000F095FC0400002C02D1012083462CE0DE
:102880000020804640463900C0B2C9B2884224D2F6
:102890003300DBB29BB24A4692B221002800FFF718
:1028A000C1FC82465046C0B2002802D05FF0020B45
:1028B00013E03200D2B292B2FF21200000F0FCFC03
:1028C00083465846C0B2002802D00320834604E065
:1028D00059FA86F918F10108D4E7200000F054FCF9
:1028E0005846C0B2BDE8F28F020008781087481C35
:1028F000118F0902037851FA83F11187401C017886
:102900005187401C518F0902037851FA83F1518796
:10291000401C017882F83710411C0020704738B500
:1029200004000D002900C9B2200000F0DDFC31BD1B
:1029300080B500F0E2FC01BD62F30F2262F31F429A
:10294000401810F0030308D0C91A1FD3DB0748BF93
:1029500000F8012D28BF20F8022D130030B41446D2
:102960001546103928BF20E93C00FAD8490728BF8E
:1029700020E90C0048BF40F8042D890028BF20F84A
:10298000022D48BF00F8012D30BC7047C91818BF90
:1029900000F8012DCB0728BF00F8012D704730B497
:1029A000002513E050F8042BD30744BFA9F101031D
:1029B0009A18091F042942F8045BFAD213468C07BF
:1029C00044BF15809B1CC90748BF1D7050F8041BED
:1029D0000029E7D130BC704730B4046891FAA1F304
:1029E000B3FA83F30325DBB25B009D40AC4391FA5D
:1029F000A1F3B3FA83F3DBB25B0012FA03F31C43D7
:102A0000046030BC704730B4436891FAA1F4B4FA62
:102A100084F4012515FA04F4A34391FAA1F4B4FA5D
:102A200084F412FA04F42343436030BC704730B49A
:102A3000846891FAA1F3B3FA83F30325DBB25B0058
:102A40009D40AC4391FAA1F3B3FA83F3DBB25B0090
:102A500012FA03F31C43846030BC704730B4C4687E
:102A600091FAA1F3B3FA83F30325DBB25B009D4037
:102A7000AC4391FAA1F3B3FA83F3DBB25B0012FA31
:102A800003F31C43C46030BC704730B4046A91FA4D
:102A9000A1F3B3FA83F30F25DBB29B009D40AC4357
:102AA00091FAA1F3B3FA83F3DBB29B0012FA03F3BA
:102AB0001C43046230BC704730B4446A0B001B0AEC
:102AC00093FAA3F3B3FA83F30F25DBB29B009D4087
:102AD000AC430B001B0A93FAA3F3B3FA83F3DBB204
:102AE0009B0012FA03F31C43446230BC7047F8B5F4
:102AF00005000E0000200024316891FAA1F1B1FA1E
:102B000081F73068F840002836D030680121B9409C
:102B100008400400002C2DD07068012802D0706895
:102B2000022809D1B26821002800FFF780FFF2686F
:102B300021002800FFF767FF326921002800FFF716
:102B40008DFF7068022810D194FAA4F0B0FA80F0DA
:102B5000082805D2726921002800FFF796FF04E0DB
:102B6000726921002800FFF7A7FF72682100280082
:102B7000FFF732FF7F1CC4E70020F2BD10B5040050
:102B8000002C0AD000F0DBFB002803D1200000F06D
:102B9000C2FB02E0200000F014F810BD10B50400E4
:102BA000002C0DD04FF47A70B4FBF0F0FFF7E6FF85
:102BB0004FF47A70B4FBF0F100FB114000F0B9FB68
:102BC00010BD10B50400002C0AD02000441E0028BF
:102BD00006D04FF47A70FFF7E1FF00F02BFAF4E72C
:102BE00010BD000010B50400002C09D000F04EFC10
:102BF0002000441E002801D000BFF9E700F048FC87
:102C000010BD30B40EE00268436802440830DC07AF
:102C100044BFA9F10104E31852F8045B43F8045BD4
:102C2000091FF9D150F8041B0029ECD130BC7047C2
:102C300010B410F00703DFF8CC4322684FF6FF0111
:102C40000A40DFF8C41351EA03210A43226010BC92
:102C50007047DFF8B0030068C0F30220704710B47B
:102C6000020052B2002A06D40A01DFF8A0330400A1
:102C700064B21A5509E00A01DFF89433040064B223
:102C800014F00F04234403F8042C10BC704770B4F4
:102C9000030013F00704D4F10700052801D3042032
:102CA00001E0D4F10700251D072D01D2002500E029
:102CB000E51E012616FA00F0401E0140A94016FA52
:102CC00005F56D1E2A401143080070BC7047B0FB2B
:102CD000F1F2521EDFF83C331A600022DFF838337D
:102CE0001A600522DFF834331A607047DFF82C03CE
:102CF000016831F00201016000207047DFF81C0319
:102D0000016851F0020101600020704701000020BD
:102D100000228A600022CA6000220A61002210009C
:102D2000C0B204280BDA00201300DBB2C854002024
:102D30001300DBB201EB83035861521CEFE7002064
:102D4000704780B5DFF8D8020068FFF7DFFFFFF7B4
:102D5000CDFF4FF47A71DFF8CC020068FFF7B7FFC0
:102D60000320FFF765FFFFF774FF00220F21FFF735
:102D70008EFF01005FF0FF30FFF771FFFFF7BEFF2E
:102D80000120DFF8A4120870DFF8A00200F002F8BA
:102D9000002002BD30B4010001200A00002A40D00A
:102DA00000221000C0B2042835DADFF87432186847
:102DB0001400E4B200EB8400406900280ED01868CB
:102DC0001400E4B200EB840040690C00A04205D17D
:102DD00001201B681400E4B218551CE018681400A8
:102DE000E4B2005D002814D118681400E4B200EBCE
:102DF0008400416101201C681500EDB2605518681F
:102E00000079FF2804D018680079401C1B681871ED
:102E100001E0521CC5E7D2B2042A01DA002000E02A
:102E20000220C0B230BC704730B4010001200A005B
:102E3000002A34D000221000C0B2042829DA784BCE
:102E400018681400E4B200EB8400406900281ED02A
:102E500018681400E4B200EB840040690C00A04242
:102E600015D118681400E4B200EB8400002444611A
:102E700000201C681500EDB2605518680079002824
:102E800004D018680079401E1B68187101E0521CBC
:102E9000D1E7D2B2042A01DA002000E00220C0B259
:102EA00030BC704710B5002000242000C0B20428B8
:102EB00017DA5B4908682200D2B2805C00280ED085
:102EC00008682200D2B200EB82004069002806D0D8
:102ED00008682100C9B200EB810040698047641C8A
:102EE000E3E710BDF8B504004B4805684D4800689D
:102EF0004F49B0FBF1F0B5FBF0F6022E06D33000DF
:102F000000F039F8641ED6F575700500444F386836
:102F1000C4603868C068002802D000F08BF8F8E779
:102F2000022D05D3B5F57A7F02D2280000F023F8F0
:102F30000020F2BD3A4800688068704710B5384CF0
:102F400020688068401C21688860206880680028AC
:102F500004D120680069401C21680861FFF7A2FFC6
:102F60002068C068002804D02068C068401E21681E
:102F7000C860002010BDF0B401002A4800682C4A47
:102F8000B0FBF2F202FB01F22348036800240025A3
:102F9000204E366840F2E937B9420ED207683C004D
:102FA000A342FBD09C4202D25D192D1B02E0751991
:102FB0002D1B5D1923009542F0D30020F0BC704713
:102FC0001648006840070CD5124800681549096882
:102FD0004FF47A72B1FBF2F1491E88420FD0012002
:102FE0000EE00C4800680F4909684FF47A72B1FB93
:102FF000F2F1C908491E884201D0012000E00020FA
:10300000704700000CED00E00000FA0500E400E06D
:1030100018ED00E014E000E018E000E010E000E04F
:10302000A8000020A4000020B500002065D0000802
:1030300040420F0080B500F0EDFA02BD10B404006C
:1030400013005A1E002B02D02170641CF8E710BC3C
:10305000704710B55A4C5B48006842000021E06898
:10306000FFF7ECFF584802680021A068FFF7E6FF71
:103070000120207410BD002100200022514B18684F
:10308000824208D24E48C06830F81200002800D0B2
:10309000491C521CF2E7642041431868B1FBF0F070
:1030A000C0B270472DE9F84304005FF000085FF0FC
:1030B000000900250026424F387C002801D13868DD
:1030C0008047002C02D15FF0FF3037E03F4B18689B
:1030D000B4FBF0F21868B4FBF0F0196801FB104083
:1030E000002800D0521C37480168491E002923D40B
:1030F000F86830F81100002801D16D1C01E00020B3
:1031000005002800944680B21FFA8CFC604511D15E
:103110005FF0000C100080B2844507D2F8681CEB09
:10312000010620F816201CF1010CF3E71868414352
:10313000080003E0491ED9E75FF0FF30BDE8F283E5
:10314000F8B5040000251E49087C002803D1086852
:103150008047012017E01C480068844212D21B48B7
:103160000068B4FBF0F3C86830F813600022B24284
:1031700006DAC868D518002720F81570521CF6E743
:10318000002000E00220F2BD38B50400002C05D07C
:103190000B488568651B2800FFF7D2FF31BD10B5CD
:1031A00004002000FFF77EFF010011F1010F01D1A3
:1031B000002003E0024880680918080010BD0000E4
:1031C00080000020D0D00008D8D00008D4D000085B
:1031D000F0B40300002000264C1E00252800270024
:1031E00080B2BFB2B8422ED2002006003700BFB274
:1031F000A4461FFA8CFC280080B2BCEB000C67458B
:103200001FDA300080B233F810003700BFB203EB92
:1032100047077F88B84212D2300080B203EB4000EB
:1032200040880200300080B233F810003700BFB28F
:1032300003EB47077880300080B223F81020761C1B
:10324000D4E76D1CCAE70020F0BC70470000000006
:10325000F8B52DED028B05000C0016009FED148BC8
:10326000002037003800210080B289B288420DD298
:10327000380080B235F8100000F0D0F953EC182B6C
:1032800000F0E6F941EC180B7F1CEBE7A4B2B6B2F4
:10329000A41B200000F09AFA02000B0051EC180B5E
:1032A00000F0A6FA00F0C8FB80B2BDEC028BF2BDC4
:1032B000000000000000000030B4030000200024E3
:1032C0002000150080B2ADB2A8420AD2200080B220
:1032D000185C0D00EDB2A84201D0012002E0641C90
:1032E000EEE7002030BC704738B504000D0029001F
:1032F000C9B2200000F0D9FB31BD80B500F062FCFE
:1033000001BD80B500F09EFC02BD10B50400200098
:1033100000F09CFC10BD10B50400200000F09CFCE7
:1033200010BD80B500F09EFC02BD80B500F09EFC93
:1033300002BD10B50400200000F09CFC10BD80B55B
:1033400000F09EFC02BDB1F5807F02D34FF0FF304C
:1033500070470170012070470078401E8041C043D3
:10336000C00F70471021816070474FF48061816009
:1033700070475FF48011816070475FF08061816009
:1033800070471021C16070474FF48061C160704781
:103390005FF48011C16070475FF08061C160704769
:1033A0002021816070474FF40061816070475FF4B5
:1033B0000011816070475FF00061816070472021DB
:1033C000C16070474FF40061C16070475FF4001145
:1033D000C16070475FF00061C16070470821816083
:1033E00070474FF40071816070475FF40021816085
:1033F00070475FF00071816070470821C1607047BD
:103400004FF40071C16070475FF40021C1607047E4
:103410005FF00071C16070470421816070474FF414
:103420008071816070475FF48021816070475FF038
:103430008071816070470421C16070474FF48071D2
:10344000C16070475FF48021C16070475FF0807198
:10345000C1607047012181607047402181607047E1
:103460005FF48031816070475FF480018160704754
:103470000121C16070474021C16070475FF4803115
:10348000C16070475FF48001C160704772B67047D9
:1034900062B67047FEE700002DE9F04104002025E8
:1034A00000260D4FB846320029004046FFF744FA87
:1034B0002068386060687860A068B860E068F8608C
:1034C0002069386160697861A069B861E069F86174
:1034D00001BEBDE8F0810000E42F00201EF0040FC3
:1034E0000CBFEFF30880EFF30980D5E7704738B5DC
:1034F00005000C00002C0FD12800FFF733FF280037
:10350000FFF74EFF2800FFF769FF2800FFF7A2FF33
:103510002800FFF781FF7CE0012C0FD12800FFF786
:1035200024FF2800FFF73FFF2800FFF75AFF28007D
:10353000FFF793FF2800FFF772FF6AE0022C0FD11C
:103540002800FFF716FF2800FFF731FF2800FFF7DC
:103550004CFF2800FFF784FF2800FFF764FF58E0C6
:10356000032C0FD12800FFF708FF2800FFF723FFE7
:103570002800FFF73EFF2800FFF776FF2800FFF73F
:1035800056FF46E0042C0FD12800FFF7FAFE280072
:10359000FFF715FF2800FFF730FF2800FFF768FF4F
:1035A0002800FFF748FF34E0052C0FD12800FFF773
:1035B000EBFE2800FFF706FF2800FFF721FF280099
:1035C000FFF759FF2800FFF739FF22E0062C0FD143
:1035D0002800FFF7DDFE2800FFF7F8FE2800FFF7C0
:1035E00013FF2800FFF74AFF2800FFF72BFF10E02A
:1035F000072C0ED12800FFF7CFFE2800FFF7EAFEC8
:103600002800FFF705FF2800FFF73CFF2800FFF721
:103610001DFF31BD80B500F03BFB02BD014648B146
:10362000B0FA80F18840C91CC1F58461090501EB3D
:10363000D021400570478268521C8260426832B1D6
:103640000268531C036011704168491E4160704755
:1036500070B44FF0004591EA030F40F12B836B40AB
:10366000841A71EB030604D26E40001BB14112199B
:1036700073414FF4001C1CEB410F34BF7CEB43063D
:1036800083E00C0DA4EB1356362E00F37C80012E44
:1036900045EAC32341DC43EA525312BFD2029202ED
:1036A0005B08240545EAC12141EA5051D2EBC02014
:1036B000994125D407D1B0FA80F610FA06F162D00C
:1036C0000020203608E0B1FA81F6B140C6F12002B0
:1036D00020FA02F21143B0404FEAF474B4EB4654BE
:1036E00034F001064FEA74040AD8D6F50016760DB8
:1036F00004F00044F04061FA06F25040F1404840C6
:10370000C00A40EA415021F0004128BF5FEA50055D
:1037100050F1000044EBD12135E0DB0A45EAC1213C
:10372000C90AB6F120050EDD42EA0242120CC5F1CB
:10373000200603FA06F6EB4042EA06056D42984180
:1037400061F100010DE062FA06F5F240554063FABE
:1037500006FC82EA0C02F3405A406D42904161EB54
:10376000030111F4801F05D1641E620502D06D00B3
:103770004041494121F48011430875F1004350F163
:10378000000041EB045170BC70471CEB410F15D297
:1037900023F0004352EA43060BD04FEA4C0CBCEB3B
:1037A000410F04D80C0D661E342EB7DDEBE7801AEE
:1037B000994150EA410608BF0021E4E708BF1CEB2D
:1037C000430F28BF6FF00001DDE72E00C11768B17D
:1037D0004840401AB0FA80F29040D21CC907C2F5A6
:1037E000846241EA025202EBD02140057047430057
:1037F000F0B540F2FF7581EA030C0CF0004C15EABD
:1038000011541DBF15EA1357AC42AF42E5E0BC416D
:10381000C1F31301C3F31303801A994143F48013D6
:1038200004D2641E4000494180185941C90241EA4E
:103830005051B1FBF3F603FB1611A2FB0675D7EB53
:10384000C020A94102D2761E80185941C90241EA1E
:103850005051B1FBF3FE03FB1E11A2FB0E75D7EB1B
:10386000C020A94103D2AEF1010E8018594189024E
:1038700041EA9051760546EA8E2EB1FBF3F603FB42
:103880001611A2FB0675D7EB8020A94102D2761E45
:1038900080185941C90241EA50514EEA060EB1FB67
:1038A000F3F603FB1611A2FB0675D7EBC020A94166
:1038B00002D2761E80185941C90241EA5051B1FB2B
:1038C000F3F703FB1711A2FB0735D3EBC020A94187
:1038D00067F100070CBF004247F0010766F3D527E8
:1038E0004FEA1E31B80814F5806412DDBD0775F18A
:1038F000004250EB0E5051EB045111F5801F5CBF9C
:1039000041EA0C01F0BD4CF07F6141F0E041002044
:10391000F0BDBD076D0840EA0E5041F48011D4F1AE
:103920000104B4F120060ADAC4F120060200E040E6
:1039300001FA06F3E1401843B24015430EE0342C7F
:1039400013DCC6F1200445EA40056D0820FA06F2B2
:10395000154321FA06F0A1400D43002175F1004204
:1039600050F1000051EB0C01F0BD00205FEA0C01AA
:10397000F0BDCFB992185B41B3FA83F704BFB2FA36
:1039800082F6BF190B3FB7F120062FBF02FA06F3EC
:10399000BB40C7F1200622FA06F638BF3343BA40CF
:1039A0001CB1E419641E33E77F4231F00041B1FAE3
:1039B00081F404BFB0FA80F6A4190B3CB4F12006E0
:1039C0002FBF00FA06F1A140C4F1200620FA06F646
:1039D00038BF3143A0403C1B1AE7AC421ABF05EA8E
:1039E0001357AF4212E050EA41061CBF52EA4306A9
:1039F000BFE750EA4107304661461CBF41EA055126
:103A0000F0BD52EA430C08BFC143F0BD00204FF4A3
:103A1000001616EB410F98BF16EB430F08BF16EBCD
:103A2000410F24BFC14305E016EB430F0CBF6146B5
:103A30004CEA0551F0BD0000C1F30A5340F2FE32DA
:103A40009B1A14DDD3F120034FEAE17208DDC902AD
:103A500041EA505141F00040D84080185040704732
:103A600003F2E13010B1D24382F0004070470020F1
:103A70007047000081B068490A6802430A6009681B
:103A800001400091009901B0704763490A68824380
:103A90000A60704781B061490A6802430A60096898
:103AA00001400091009901B0704738B504000D0045
:103AB0005B4884420BD12800C0B2002803D001200B
:103AC000FFF7D8FF02E00120FFF7DFFF79E055485C
:103AD00084420BD12800C0B2002803D00220FFF797
:103AE000C9FF02E00220FFF7D0FF6AE04E4884429F
:103AF0000BD12800C0B2002803D00420FFF7BAFF82
:103B000002E00420FFF7C1FF5BE0484884420BD18C
:103B10002800C0B2002803D00820FFF7ABFF02E066
:103B20000820FFF7B2FF4CE0414884420BD1280047
:103B3000C0B2002803D01020FFF79CFF02E0102045
:103B4000FFF7A3FF3DE03B4884420BD12800C0B201
:103B5000002803D02020FFF78DFF02E02020FFF790
:103B600094FF2EE0344884420BD12800C0B20028D4
:103B700003D04020FFF77EFF02E04020FFF785FFE3
:103B80001FE02E4884420BD12800C0B2002803D089
:103B90008020FFF76FFF02E08020FFF776FF10E044
:103BA000274884420DD12800C0B2002804D04FF429
:103BB0008070FFF75FFF03E04FF48070FFF765FF51
:103BC000FFE731BD80B501211548FFF76EFF0121E8
:103BD0001448FFF76AFF01211348FFF766FF012130
:103BE0001248FFF762FF01211148FFF75EFF012134
:103BF0001048FFF75AFF01210F48FFF756FF012138
:103C00000E48FFF752FF01210D48FFF74EFF4FF41A
:103C10008040FFF73FFF01BD30380240443802408A
:103C2000000002400004024000080240000C024074
:103C3000001002400014024000180240001C024024
:103C40000020024080B5FFF77CF802BD10B50400EB
:103C50002000FFF79FF810BD10B504002000FFF70B
:103C600041F910BD80B5FFF765F902BD80B5FFF7DA
:103C700065F902BD10B504002000FFF77CF910BD06
:103C800080B5FFF79DF902BD4AF6AA210160704791
:103C900080B50348FFF7F8FF002002BD00000000D8
:103CA0000030004070B44FF0004591EA030F7FF5FB
:103CB000D7AC6B40841A71EB030603D2001BB141F1
:103CC000121973414FF4001C1CEB410F34BF7CEB05
:103CD000430442E00C0DA4EB1356352E4FDC45EAAD
:103CE000C323DB0A45EAC121C912B6F120050DDD67
:103CF00063FA05F6EB4086EA0305124218BF45F069
:103D00000105C01851F100010CD213E062FA06F56A
:103D1000F2405540F3415A40B340F3405A408018B6
:103D2000594107D349085FEA30005FEA350528BFEB
:103D300045F0010501F58011420875F1004250F18E
:103D4000000041EB04514E0016F5001F70BC38BF57
:103D500070470020090D090570471CEB410F10D278
:103D600052EA43060BD0BCEB410F05D80C0DAB4318
:103D7000661E342EB6DD02E0AB438018594170BC9C
:103D8000704770BC70470000DFF8A0080068C0F3FF
:103D900002207047010049B200290AD4012210F024
:103DA0001F018A40DFF8881803005BB25B0941F805
:103DB0002320704710B4020052B2002A06D40A0130
:103DC000DFF87038040064B21A5509E00A01DFF820
:103DD0006838040064B214F00F04234403F8042C80
:103DE00010BC704770B4030013F00704D4F107004F
:103DF000052801D3042001E0D4F10700251D072D7B
:103E000001D2002500E0E51E012616FA00F0401E52
:103E10000140A94016FA05F56D1E2A40114308001D
:103E200070BC704781B0DFF814180A6802430A605A
:103E3000096801400091009901B0704781B0DFF836
:103E400000180A6802430A6009680140009100995D
:103E500001B07047DFF8E8170A6882430A607047CC
:103E600081B0DFF8E0170A6802430A600968014080
:103E70000091009901B07047DFF8C8170A688243C3
:103E80000A607047DFF8C027535CC3181B6853F003
:103E90000103525C821813607047DFF8AC27535C53
:103EA000C3181B685B085B00525C82181360704784
:103EB00010B4DFF894375C5C04195B5CC3185B6872
:103EC0001B0C1B041343636010BC7047DFF878279A
:103ED000515C4018406880B27047DFF86C27535C33
:103EE000C3181B6853F01003525C821813607047AC
:103EF00030B4046891FAA1F3B3FA83F30325DBB27B
:103F00005B009D40AC4391FAA1F3B3FA83F3DBB2BB
:103F10005B0012FA03F31C43046030BC70478161FC
:103F200070470A0482617047C16851F40051C16052
:103F30007047016931F490410161416931F02A0112
:103F400041617047006810F0010070470068400848
:103F500010F0010070470068800810F00100704701
:103F60000068C00810F0010070470068000910F0F8
:103F7000010070470068400910F0010070470068B8
:103F8000800910F0010070470068C00910F00100BE
:103F900070470068000A10F0010070470068400A8E
:103FA00010F00100704781B00168009100994168EC
:103FB0000091009901B0704781B0016800910099AB
:103FC00041680091009901B0704781B0016800918B
:103FD000009941680091009901B0704781B0016873
:103FE0000091009941680091009901B0704781B03B
:103FF00001680091009941680091009901B07047F3
:104000007FF04001016070477FF020010160704740
:104010007FF48071016070477FF400710160704728
:10402000C16851F01001C1607047C16851F02001B2
:10403000C1607047C16851F04001C1607047C168FC
:1040400051F08001C1607047C16831F04001C1602A
:104050007047C16831F08001C1607047C0680009D5
:1040600010F001007047C068400910F0010070476F
:10407000C068800910F001007047C068C00910F0E6
:1040800001007047C068000A10F001007047006925
:10409000800910F001007047406910F0010070477E
:1040A0004069800A10F001007047416951F04001F9
:1040B00041617047416951F080014161704740683A
:1040C000C0B270470A00D2B24260704701000020BF
:1040D000087100204871002088710020C8710020FC
:1040E000087200204872002088720020C8720020E8
:1040F00008730020086100204861002088610020CA
:10410000C86100200862012081F85000002081F879
:104110005100002081F85200002081F85400002056
:1041200081F855000020A1F856000020A1F85800A1
:104130000020A1F85C000020A1F85A000020A1F89E
:104140005E00002081F85300002081F8600000200C
:104150004866002088660020C866002008670120A5
:1041600081F82400002081F82500002081F8260035
:10417000002081F82800002081F8290000204885CF
:1041800000208885002008860020C88500204886F9
:10419000012081F82700002081F834000020886386
:1041A0000020C86300200864002048640020C8671D
:1041B000002070472DE9F84F04000F009046994603
:1041C0000A9DDDF82CA00C9EDDF834B02000FFF72E
:1041D0007DFF84F85290A4F85E70C4F8708084F873
:1041E00026606586C4F844A0C4F87CB0002C08D0D2
:1041F000DFF858040068844203D1200000F0D6FEA6
:1042000011E0002C05D0002C03D1200000F0FEFEB0
:1042100009E0002C05D0002C03D1200000F0F9FEAD
:1042200001E0022000E00020BDE8F28F38B5040074
:104230000D00606900280ED02800C0B2012805D109
:10424000022221696069FFF753FE04E00022216920
:104250006069FFF74DFE002032BD38B504000D0047
:10426000E06900280CD02800C0B2012804D1A1695F
:10427000E069FFF756FE03E0A169E069FFF74FFE32
:10428000002032BD70B504000D000026E06F00284C
:1042900002D0E06F804706002800C0B2002803D09B
:1042A0006666606EA06602E0A663A06BE063002015
:1042B00070BDF8B504000D0016000027E06F00285F
:1042C00003D0E06F8047801C07003000C0B2002898
:1042D0001FD0A766606EA16E884209D2A16E606E83
:1042E000091A8D4235D2012084F86000012031E0A6
:1042F000A06E616E88422CD2616E5FF0FF30411A71
:10430000A06E41188D4224D2012084F86000012063
:1043100020E0E763A06BE16B884209D2E16BA06B00
:10432000091A8D4215D2012084F83400012011E0D1
:10433000E06BA16B88420CD2A16B5FF0FF30411A99
:10434000E06B41188D4204D2012084F83400012032
:1043500000E00020F2BD70B504000D00002694F8C6
:104360005000002849D12800C0B200281FD0606E3C
:10437000002842D0E06E00283FD0606E002801D1B6
:1043800000203CE00122E16E2000FFF792FF0600D2
:104390003000C0B2002830D02279521EDFF8E01978
:1043A000200000F0A0FC200000F012FC25E0A06B33
:1043B000002822D0206C00281FD0A06B002801D13B
:1043C00000201CE00022216C2000FFF772FF060095
:1043D0003000C0B200280DD0A06B00280AD022798E
:1043E000521EDFF8D419200000F07DFC200000F000
:1043F00014FC02E0002084F834003000C0B270BD2C
:1044000038B504000D00DFF8B4190D7094F85400AD
:10441000002805D002283DD01CD3032866D066E0D2
:10442000B4F85800002814D160790A78904210D16D
:104430000878216F0870012084F854000120A4F846
:104440005A0001212000FFF71DFF0121200000F08C
:10445000AEFB4CE00878002814D00878B4F85E2051
:10446000D2B290420ED20878226F50700878A4F829
:104470005600B4F85A00401CA4F85A00022084F8F0
:10448000540002E0002084F8540001212000FFF7CE
:10449000F9FE2CE0206FB4F85820104409788170A0
:1044A000B4F85800401CA4F85800B4F85A00401C56
:1044B000A4F85A00B4F85800B4F85E1080B28842EC
:1044C00002D30020A4F8580001212000FFF7DAFEF3
:1044D000B4F85800B4F8561080B2884205D30320CF
:1044E00084F85400012084F8530000E0FFE7002026
:1044F00032BD38B504000D00DFF8AC190D7094F82A
:104500005400002807D0022837D01ED3042800F01A
:104510008A805CD388E0B4F85800002814D1607910
:104520000A78904210D10878216F0870012084F831
:1045300054000120A4F85A0001212000FFF7A2FE38
:104540000121200000F033FB6EE00878226F5070EC
:104550000878A4F85600B4F856000002A4F85600F3
:10456000022084F85400B4F85A00401CA4F85A0001
:1045700001212000FFF786FE56E00878226F907038
:10458000B4F85600097850FA81F0A4F85600B4F84F
:104590005A00401CA4F85A00B4F8560000280ED067
:1045A000B4F85600B4F85E1080B2884207D2B4F86E
:1045B0005600A4F85A00032084F8540002E00020BA
:1045C00084F8540001212000FFF75CFE2CE0206FEE
:1045D000B4F8582010440978C170B4F85800401C51
:1045E000A4F85800B4F85A00401CA4F85A00B4F8D3
:1045F0005800B4F85E1080B2884202D30020A4F8BC
:10460000580001212000FFF73DFEB4F85800B4F82F
:10461000561080B2884205D3042084F8540001204B
:1046200084F8530000E0FFE7002032BD0CED00E00D
:1046300000E100E000E400E018ED00E03038024066
:104640004038024044380240C8D00008AC00002086
:1046500038B504000D00B4F85E00FF2805DA290023
:10466000C9B22000FFF7CCFE04E02900C9B2200047
:10467000FFF73FFF32BD1CB5040000208DF800009D
:10468000608D00282CD0A08D618D80B2884223D00F
:10469000606CA18D415C206AFFF714FDA08D401C69
:1046A000A085A08D618E80B2884201D30020A085B4
:1046B000A08D618D80B2884215D3E08D002812D084
:1046C000A08DE18D80B288420DD3206AFFF7C1FC36
:1046D000206AFFF7AFFC06E001208DF8000002E041
:1046E00002208DF800009DF80000002805D0206A07
:1046F000FFF7AFFC200000F090FA00212000FFF748
:10470000C1FD002016BD10B50400E06900280BD0E3
:1047100094F82800002807D10D21206AFFF7D2FC69
:10472000012084F8280017E0E06900280BD094F8F5
:104730002800012807D10A21206AFFF7C3FC0220C4
:1047400084F8280008E0002084F82800206AFFF799
:104750007BFC200000F061FA002010BD38B5040099
:104760000D0094F82700002803D094F827000328B0
:1047700002D1FEF75FFCF4E7002060850020208670
:10478000A179200000F034F80021200000F030F87A
:10479000608EB0F5807F06DB0021200000F028F855
:1047A000208E401C2086607A217A401A002803D08F
:1047B000E179200000F01CF8206F617A415C200054
:1047C00000F016F82800C0B200280DD02800C0B2B2
:1047D000002801D1002000E00120216F627A8018BA
:1047E000095C200000F004F8608D2086002032BDB6
:1047F0000200506C538DC154508D401C5085508D1B
:10480000538E80B2984201D300205085002070471B
:104810000200506C138EC15400207047F8B504009C
:1048200000250026B4F8567094F85200002800F0D5
:10483000E78000F0C5FD002840F0E28094F85200C7
:10484000012823D17F1EB4F85E00FA2809DA206F10
:104850004770206F390089B2084480780600BF1C79
:104860000DE0380080B2000A216F4870206F877019
:10487000206F390089B20844C0780600FF1C390057
:1048800089B2206F00F0BBFD0500B5E094F852003E
:10489000022824D17F1EB4F85E00FA2809DA206FBE
:1048A0004770206F390089B2084480780600BF1C29
:1048B0000DE0380080B2000A216F4870206F8770C9
:1048C000206F390089B20844C0780600FF1C3A0006
:1048D00092B2216F072000F087FD05008CE094F86C
:1048E0005200032833D1BF1EB4F85E00FA2811DA53
:1048F000206F4770206F390089B208444078000269
:10490000216F3A0092B21144897850FA81F0060082
:10491000BF1C15E0380080B2000A216F4870206F7C
:104920008770206F390089B2084480780002216FB7
:104930003A0092B21144C97850FA81F00600FF1C87
:10494000390089B2206F00F047FD050054E094F86B
:104950005200042850D13F1FB4F85E00FA2820DA34
:10496000206F4770206F390089B2084410F8010C9D
:104970000002216F3A0092B2895C40180002216F58
:104980003A0092B21144497850FA81F00002216F46
:104990003A0092B21144897850FA81F00600BF1CA7
:1049A00024E0380080B2000A216F4870206F8770C1
:1049B000206F390089B2405C0002216F3A0092B248
:1049C0001144497850FA81F00002216F3A0092B206
:1049D0001144897850FA81F00002216F3A0092B2B6
:1049E0001144C97850FA81F00600FF1C390089B2E1
:1049F000206F00F0E9FC0500B54201D0012000E085
:104A00000020F2BD70B5040094F82600002874D090
:104A100000F0D6FC002870D10025668D94F829009E
:104A2000012800D1B61C608EFF2804DA3000801EF9
:104A3000616C487009E0300080B2C01E0012616CE9
:104A400048703000C01E616C887094F82600012800
:104A50000AD1618D606C00F0D2FC05002900C9B25A
:104A60002000FFF7C5FE44E094F8260002280BD191
:104A7000628D616C072000F0B7FC05002900C9B207
:104A80002000FFF7B5FE34E094F82600032810D18B
:104A9000618D606C00F0A0FC05002900090AC9B214
:104AA0002000FFF7A5FE2900C9B22000FFF7A0FEF5
:104AB0001FE094F8260004281BD1618D606C00F083
:104AC00083FC05002900090EC9B22000FFF790FE03
:104AD0002900090CC9B22000FFF78AFE2900090A43
:104AE000C9B22000FFF784FE2900C9B22000FFF7F9
:104AF0007FFE608DE085002000E0012070BD38B5AC
:104B000004000D0094F82700002803D094F8270033
:104B1000032802D1FEF78EFAF4E7002084F827007C
:104B20002800C0B2012802D1A079616C0870607AB7
:104B3000217A401A002803D0E079616C227A8854E7
:104B40002000FFF75FFF94F82900012807D10D210D
:104B50002000FFF74DFE0A212000FFF749FE608E7E
:104B6000FF2804DA608D801E616C487008E0608D5B
:104B7000C01E0012616C4870608DC01E616C887030
:104B8000608DE08501212000FFF767FB01212000F7
:104B9000FFF74CFB94F82400002803D1206AFFF7AC
:104BA0004EFA02E0200000F0B4FB002032BD02000B
:104BB0000800C0B2002803D0002082F8600002E0A4
:104BC000002082F834000020704790F853007047AE
:104BD00010B5040000212000FFF73FFB002084F8FF
:104BE00054000020A4F856000020A4F8580000202B
:104BF000A4F85A00002084F85300002060660020CA
:104C0000A066002084F8600094F85000002802D0CC
:104C1000200000F070FB002010BD10B50400012042
:104C200084F82700002060850020A0850020E08512
:104C30000020A0630020E063002084F834000020FE
:104C400084F8280000212000FFF707FB0021200046
:104C5000FFF7ECFA002010BD0200507A117A401ADA
:104C6000002807D0106F117A405CD179884201D0BA
:104C7000012000E00020704710B50400206AFFF713
:104C8000FCF9002807D0206AFFF77EF9002802D03F
:104C9000FEF7D0F9F7E7206AFFF7EAF900280ED00F
:104CA000206AFFF76CF9002806D094F82800002845
:104CB00002D1FEF7BFF9F3E7206AFFF7A1F901215E
:104CC0002000FFF7CAFA01212000FFF7AFFA10BD5C
:104CD00010B5040000212000FFF7BFFA00212000DA
:104CE000FFF7A4FA10BD0CB42DE9F84304000D0041
:104CF0002000FFF7C1FF5FF0000908AEDFF8A875DC
:104D000033002A004FF40071380000F081FB804628
:104D1000404680B240F20121884202DB4FF400702D
:104D20008046A4F8008001206080032084F82700DA
:104D3000206AFFF77FF93978206AFFF7C3F9BDE8E9
:104D4000F1035DF80CFB10B50400608821888842EF
:104D500009D3206AFFF778F92000FFF7B9FF012097
:104D600084F8270009E0DFF840056188415C206A8B
:104D7000FFF7A8F96088401C6080002010BD00008B
:104D8000D8CF000810B5040094F82700002803D1FC
:104D90002000FFF7B8FC0DE094F82700032803D1AA
:104DA0002000FFF7D0FF05E0012084F82700206AEB
:104DB000FFF74AF9002010BDF8CF0008143000209A
:104DC00038B504000D00DFF8E40484420CD128005B
:104DD000C0B2002803D01020FFF742F802E01020F4
:104DE000FFF74AF800205DE0DFF8C40484420ED1EA
:104DF0002800C0B2002804D05FF40030FFF71EF88E
:104E000003E05FF40030FFF725F800204AE0DFF808
:104E1000A40484420ED12800C0B2002804D05FF45C
:104E20008020FFF70BF803E05FF48020FFF712F813
:104E3000002037E0DFF8800484420CD12800C0B2A3
:104E4000002803D02020FFF70BF802E02020FFF716
:104E500013F8002026E0DFF8640484420ED1280015
:104E6000C0B2002804D05FF40020FEF7E7FF03E0A3
:104E70005FF40020FEF7EEFF002013E0DFF84004AF
:104E800084420ED12800C0B2002804D05FF4801004
:104E9000FEF7D4FF03E05FF48010FEF7DBFF002095
:104EA00000E0012032BD00001530002070B4060083
:104EB000039D049CF17132727372B572F47200201A
:104EC00070BC704778B58FB00400DFF8F85301214B
:104ED0002800FDF724FD1821002202AE3000FDF766
:104EE0002BFD022003900320049000200590012058
:104EF00006904FF4C06002900720079002A9280096
:104F0000FDF7F5FD65614FF400702061DFF89C034B
:104F1000206202202071206A00F004FC0121206A36
:104F2000FFF74EFF1C21002208AD2800FDF704FD0D
:104F30005FF4E13008900020099000200A900020E2
:104F40000B900C200C9000200D9000200E9008A9D2
:104F5000206A00F033FC206AFEF7EBFFE06F0028C8
:104F600004D06420E0666420206403E00020E06652
:104F700000202064002084F82600552060715A200B
:104F8000A07104200190032000900223022200213E
:104F90002000FFF78BFF00212000FFF75EF90021C2
:104FA0002000FFF743F9002010B070BD10B50400D9
:104FB0002000FFF787FF94F85000002803D1BB487A
:104FC000FFF733F805E0B948FFF72AF8200000F0B2
:104FD000C2F894F82400002802D0200000F011F953
:104FE000FEF7D2FE00220221FEF7FCFE0100252082
:104FF000FEF7E0FE2520FEF7CDFEAC48FEF794FF5D
:10500000B1492000FFF76FFE002010BD0100002015
:10501000704701000020704710B50400206AFEF7B9
:10502000A9FF00280FD0206AFFF71DF800280AD03A
:10503000206AFFF744F80100C9B22000FFF708FB1F
:10504000206AFEF7E1FF206AFEF79EFF002807D0E6
:10505000206AFFF712F8002802D02000FFF70BFBB0
:10506000206AFEF78CFF00280AD0206AFFF700F8BC
:10507000002805D02000FFF785FE206AFEF7C0FF5C
:10508000206A8E49884210D0206A8D4988420CD00F
:10509000206AFEF783FF002807D0206AFFF700F898
:1050A000002802D0206AFEF7B7FF206AFEF771FFE2
:1050B000002807D0206AFEF7EAFF002802D0206A05
:1050C000FEF7A6FF206AFEF750FF00280ED0206AE8
:1050D000FEF7C4FF002809D0200000F027F9206A5D
:1050E000FEF785FFA16F606FFEF701FA206AFEF7F9
:1050F00037FF002807D0206AFEF7CEFF002802D035
:10510000206AFEF76BFF206AFEF725FF002807D014
:10511000206AFEF7C1FF002802D0206AFEF755FF83
:10512000206AFEF713FF002807D0206AFEF7B4FFBD
:10513000002802D0206AFEF73FFF206AFEF702FF38
:10514000002807D0206AFEF79DFF002802D0206AC1
:10515000FEF729FF10BD30B58FB004005B4D022172
:10516000280000F003FC5FF48000FEF75BFE65673B
:105170000220A0673C2100226D462800FDF7DCFBE1
:105180005FF000600990B4F85E0008900020029083
:1051900000200B9001200C90206F019000200790C0
:1051A0004FF48060059000200390206A001D00905D
:1051B00000200E9000200690002004905FF4003044
:1051C0000A906A46A16F606F00F0C8FCA16F606F23
:1051D000FEF758FE206AFEF768FFFEF7D5FD0022B5
:1051E0000221FEF7FFFD01003A20FEF7E3FD3A2021
:1051F000FEF7D0FDA16F606FFEF76FFE00200FB0CD
:1052000030BD30B58FB00400304D0721280000F0CC
:10521000ADFB5FF48000FEF705FEA5640720E064A7
:105220003C2100226D462800FDF786FB5FF0006000
:105230000990608E08904020029000200B90012081
:105240000C90606C0190002007904FF480600590F6
:1052500000200390206A001D009000200E90002086
:105260000690002004905FF400300A906A46E16CDA
:10527000A06C00F073FC206AFEF71CFFFEF784FDB3
:1052800000220221FEF7AEFD01004620FEF792FD4E
:105290004620FEF77FFDE16CA06CFEF71EFE0020AD
:1052A0000FB030BD00000000382B0020001001407E
:1052B000004400400048004000140140004C004001
:1052C00000500040000002404CD000080064024042
:1052D00038B50400A16F606FFEF7DFFDA16F606F4E
:1052E000FEF705F9B4F85E50A16F606FFEF7EEFDB2
:1052F000281A80B232BD10B50400B4F85E20A16F48
:10530000606FFEF7D5FDA16F606FFEF7BBFD00205B
:1053100010BD10B50400E28DE16CA06CFEF7C8FD75
:10532000E16CA06CFEF7AEFD002010BDF8B50400E6
:1053300000252000FFF7CCFF0600206F0078617980
:1053400088421DD1206F4778B4F85E00FF2801DA4B
:10535000BF1C05E0BFB23F02206F40783F18FF1C22
:105360003800310080B289B2884203D1012084F82C
:10537000530007E02000FFF72BFC0220050001E0AE
:10538000012005002800C0B2F2BD10B504002000C5
:10539000FFF7CCFF206AFEF72AFE10BD10B504000F
:1053A000E16CA06CFEF779FDE16CA06CFEF79FF854
:1053B000206AFEF73FFE10BD80B500F00FFC01BD76
:1053C00080B500F00FFC02BD38B504000D002900C7
:1053D000200000F00BFC32BD38B504000D002900A0
:1053E000200000F00BFC32BD70B504000D0016006B
:1053F000320029002000C0B200F008FC70BD38B5B2
:1054000004000D002900200000F00BFC32BD00005C
:1054100008B584B00023039300290EBF01930190C7
:10542000491E0291009301A904AB07487844183043
:1054300000F000FC019909B100220A70002858BF51
:10544000039805B000BD00BFEFE1FFFFC068400B4F
:1054500010F001007047026932F440520A430261C1
:105460007047426932F440720A43426170472DE945
:10547000F54F83B08A4698460498B0F5004F40F047
:105480009E805FF0640902240025192600275246F9
:105490000023A6FB020106FB031107FB0211CDE965
:1054A000000140460021A4FB002304FB013305FB5F
:1054B0000033DDE9000101F021FC6421B0FBF1F0D3
:1054C000029052460023A6FB020106FB031107FBD4
:1054D0000211CDE9000140460021A4FB002304FB9A
:1054E000013305FB0033DDE9000101F007FC8346D1
:1054F00052460023A6FB020106FB031107FB021123
:10550000CDE9000140460021A4FB002304FB013348
:1055100005FB0033DDE9000101F0F0FB6421B0FB85
:10552000F1F009FB10B0C00032306421B0FBF1F0A3
:10553000400010F4F870029910EB011002905246EE
:105540000023A6FB020106FB031107FB0211CDE9B4
:10555000000140460021A4FB002304FB013305FBAE
:105560000033DDE9000101F0C9FB83465246002308
:10557000A6FB020106FB031107FB021106000F0048
:1055800040460021A4FB002304FB013305FB00334C
:105590003000390001F0B2FB6421B0FBF1F009FBEF
:1055A00010B95FEAC90032306421B0FBF1F111F0AB
:1055B00007010298091889B2039881609BE00424CE
:1055C00000255FF064091926002752460023A6FB38
:1055D000020106FB031107FB0211CDE90001404661
:1055E0000021A4FB002304FB013305FB0033DDE9AC
:1055F000000101F083FB6421B0FBF1F00290524600
:105600000023A6FB020106FB031107FB0211CDE9F3
:10561000000140460021A4FB002304FB013305FBED
:105620000033DDE9000101F069FB834652460023A7
:10563000A6FB020106FB031107FB0211CDE90001E5
:1056400040460021A4FB002304FB013305FB00338B
:10565000DDE9000101F052FB6421B0FBF1F009FB30
:1056600010B0000132306421B0FBF1F010F0F00016
:10567000029910EB0110029052460023A6FB020192
:1056800006FB031107FB0211CDE900014046002192
:10569000A4FB002304FB013305FB0033DDE900011B
:1056A00001F02CFB834652460023A6FB020106FBB9
:1056B000031107FB021106000F0040460021A4FB66
:1056C000002304FB013305FB00333000390001F0F7
:1056D00015FB6421B0FBF1F009FB10B95FEA09107A
:1056E00032306421B0FBF1F111F00F01029809187A
:1056F00089B20398816005B0BDE8F08F5B490A6804
:1057000002430A60704759490A6882430A60704739
:1057100057490A6802430A60704755490A6882433C
:105720000A60704738B5040000255248844206D10B
:105730001020FFF7EDFF1020FFF7EFFF3BE04E4892
:10574000844208D15FF40030FFF7D8FF5FF40030E7
:10575000FFF7D9FF2FE04948844208D15FF4802049
:10576000FFF7CCFF5FF48020FFF7CDFF23E0444834
:10577000844206D12020FFF7CBFF2020FFF7CDFF8A
:1057800019E04048844208D15FF40020FFF7B6FFDB
:105790005FF40020FFF7B7FF0DE03B48844208D1DB
:1057A0005FF48010FFF7AAFF5FF48010FFF7ABFFF4
:1057B00001E0012005002800C0B232BDF8B584B078
:1057C00005000E00012700242800FFF73FFE0028F7
:1057D00046D1E9682D48014070680143F0680143F3
:1057E00030690143B0690143E960B1682800FFF7FF
:1057F00032FE71692800FFF734FE684601F0BEFBF7
:105800001C48854202D1039804001CE01A488542D6
:1058100002D10298040016E01848854202D102988D
:10582000040010E01648854202D1039804000AE003
:105830001448854202D10298040004E012488542CF
:1058400001D102980400002C0AD03068002807D04B
:10585000002007003368B26921002800FFF707FE27
:105860003800C0B205B0F0BD000000002038024092
:10587000243802400010014000440040004800402D
:1058800000140140004C004000500040F369FFFF4D
:105890009C4A535CC3181B685B085B00525C82180F
:1058A0001360704730B4974C635CC3181D68964B07
:1058B0001D401543635CC3181D6030BC704710B4B5
:1058C000904B5C5C04195B5CC3185B681B0C1B048D
:1058D0001343636010BC704710B48A4B5C5C0419BE
:1058E000246834F0606414435B5CC3181C6010BC13
:1058F000704710B4834B5C5C0419246834F0C074A6
:1059000014435B5CC3181C6010BC704710B47D4B23
:105910005C5C0419246834F4C00414435B5CC31851
:105920001C6010BC704770B4764C655C4519645CB3
:1059300004196669F608F60052EA030426436E610C
:1059400070BC70476F4B5B5CC318DA6070476D4B7F
:105950005B5CC3189A6070476C490A6802430A602E
:1059600070476A490A6882430A6070472DE9F0412E
:1059700005000C00DFF89881474600266548844200
:105980001AD16548854208D15FF40010FFF7E4FFA3
:105990005FF40010FFF7E5FFB0E06048854208D1F2
:1059A0005FF48000FFF7D8FF5FF48000FFF7D9FFB6
:1059B000A4E001200600A1E021002800FFF768FF15
:1059C0005548854203D1002C01D1474655E0534943
:1059D0008D4203D1002C01D1514F4EE0854203D1BD
:1059E000012C01D14F4F48E08D4203D1012C01D150
:1059F0004D4F42E0854203D1022C01D14B4F3CE098
:105A00008D4203D1022C01D1494F36E0854203D1AA
:105A1000032C01D1474F30E08D4203D1032C01D13B
:105A2000454F2AE0854203D1042C01D1434F24E0A5
:105A30008D4203D1042C01D1414F1EE0854203D198
:105A4000052C01D13F4F18E08D4203D1052C01D127
:105A50003D4F12E0854203D1062C01D13B4F0CE0B3
:105A60008D4203D1062C01D1394F06E0854203D186
:105A7000072C01D1374F00E0374F0020386000205D
:105A800078600020B8600020F86000203861212094
:105A90007861002221002800FFF71EFF002C02D1B0
:105AA0003F20A8602AE0012C03D14FF47460A86065
:105AB00024E0022C03D15FF47C10A8601EE0032CCC
:105AC00003D15FF07460A86018E0042C02D13F207D
:105AD000E86013E0052C03D14FF47460E8600DE03A
