:020000040800F2
:10000000484000209D01000831E300086D2C0008E5
:1000100069E00008350E0008D12701080000000043
:100020000000000000000000000000000DF40008C7
:10003000DD1500080000000011E60008A1F7000827
:10004000912B0108B7010008B7010008B7010008AB
:10005000B7010008E1E60008B7010008B701000891
:10006000B7010008B7010008B7010008B701000890
:10007000B7010008B7010008B7010008B701000880
:10008000B7010008B7010008B7010008B701000870
:10009000B7010008B7010008B7010008B701000860
:1000A000B7010008B7010008B7010008B701000850
:1000B000E5FC0008B7010008B7010008B701000817
:1000C000B7010008B7010008B7010008B701000830
:1000D000B7010008C9070108B7010008B701000807
:1000E000B7010008B7010008B7010008B701000810
:1000F000B7010008B7010008B7010008B701000800
:10010000B7010008B7010008B7010008B7010008EF
:10011000B7010008B7010008B7010008B7010008DF
:10012000051500086115000865150008B7010008ED
:10013000B7010008B7010008B7010008B7010008BF
:10014000B7010008B7010008B7010008B7010008AF
:10015000B7010008B7010008A1150008B7010008A1
:10016000B7010008B7010008B7010008B70100088F
:10017000B7010008B7010008B7010008000000003F
:1001800001200008B7010008DFF80CD000F0E8FA01
:10019000004800476D2E010848400020064880476F
:1001A00006480047FEE7FEE7FEE7FEE7FEE7FEE75C
:1001B000FEE7FEE7FEE7FEE775FC000889010008A0
:1001C0002DE9F05F0546002092469B46884606468C
:1001D000814640241BE0284641464746224600F01F
:1001E0000FFA53465A46C01A914110D31146184689
:1001F000224600F0F6F92D1A67EB01084F46224619
:100200000120002100F0EDF917EB00094E41201EFE
:10021000A4F10104DFDC484631462A464346BDE8E6
:10022000F09FD2B201E000F8012B491EFBD27047CB
:100230000022F6E710B513460A4604461946FFF7B2
:10024000F0FF204610BD2DE9FE4F804681EA0300F5
:10025000C00F0C46009021F0004123F00045B8EBA0
:100260000200A94105D24046214690461C460B4655
:10027000024623F00040104347D0270DC7F30A0081
:10028000C3F30A510290401A019040286BDAC3F37D
:10029000130040F4801B0098924620B10023D2EB5B
:1002A000030A63EB0B0B01985946C0F1400250461C
:1002B00000F097F906460D4650465946019A00F05F
:1002C000AFF910EB08006141002487EA115284EA7B
:1002D000E7731A4340D0009A62B3019A012A4FEAA9
:1002E000075215DC001B61EB02014FF0004202EAED
:1002F0000752CDE90042001C41F5801132462B46E1
:1003000000F0AFF903B0BDE8F08F40462146F9E7B1
:10031000001B61EB0201001C41F5801300185B41DA
:100320002018A2F5001747EB030140EAD570B61973
:100330006D4111E06D084FEA360645EAC0754FEA97
:100340000752001B61EB0201001C41F580114908B6
:100350004FEA30000019514132462B4603B0BDE848
:10036000F04F00F06FB90098012240000023D0EB5D
:10037000020263EBE073009821464FEAE074B8EBA9
:10038000000061EB0401E9E783F000435BE781F0E3
:10039000004158E72DE9FE4F81EA030404F00044D0
:1003A00021F0004100944FF0000B23F0004350EA8D
:1003B00001045ED052EA03045BD0C3F30A54C1F3D4
:1003C0000A552C44A4F2F3340194A0FB0254C1F367
:1003D000130141F48011C3F3130343F4801301FBB1
:1003E000024400FB034E840A970A44EA815447EA18
:1003F0008357A4FB076802958D0A05FB07854FEA22
:10040000932C04FB0C542705029D4FEA065847EA3B
:100410001637B5EB08056EEB070C870E920E47EA10
:10042000811742EA8312A7FB0201B6EB0B0164EBD2
:1004300000042B0D43EA0C335E1844EB1C50DA46E3
:100440005146E7FB0201C5F313044FEA0B3343EABD
:1004500014534FEA0432019C43EA0603A4F10C044E
:100460000294009CCDE900B400F0FBF803B0BDE8B5
:10047000F08F00200146F9E72DE9F04D81EA0304F1
:1004800004F0004B21F0004514464FF0000A23F021
:10049000004150EA050220D054EA01021DD0C5F304
:1004A0000A570246C5F31303C1F31300C1F30A56FA
:1004B00040F4801543F48013A7EB0608101BD646C2
:1004C00008F2FD3873EB050002D308F1010801E0E2
:1004D00092185B41B8F1000F03DA00200146BDE835
:1004E000F08D00204FF48011064684460EE0171B65
:1004F00073EB050705D3121B63EB050306434CEAB8
:10050000010C49084FEA300092185B4150EA01079C
:10051000EDD152EA030012D082EA040083EA050119
:10052000084305D0101BAB4106D20122002306E090
:1005300000224FF0004302E06FF0010253101AEB6B
:1005400006004CEB085110EB0A0041EB0B01BDE833
:10055000F04D00F077B80EB5C10F80EAE0700844A6
:10056000CA07002140F233438DE80E000A460B46CD
:1005700000F077F803B000BD70B5C1F30A5201F086
:1005800000450024C1F3130140F2FF3341F4801110
:100590009A4201DA002070BD40F233439A42A2F23F
:1005A000334203DC524200F02BF800E090402C4331
:1005B000F1D0404270BD30B50B46014600202022EC
:1005C000012409E021FA02F59D4205D303FA02F560
:1005D000491B04FA02F52844151EA2F10102F1DCC0
:1005E00030BD202A04DB203A00FA02F100207047D7
:1005F0009140C2F1200320FA03F319439040704761
:10060000202A04DB203A21FA02F00021704721FA67
:1006100002F3D040C2F120029140084319467047CE
:10062000202A06DBCB17203A41FA02F043EAE073B6
:1006300006E041FA02F3D040C2F1200291400843A3
:100640001946704710B5141E73F1000408DA401CF7
:1006500041F1000192185B411A4301D120F00100E1
:1006600010BD2DE9F04D92469B4611B1B1FA81F2D1
:1006700002E0B0FA80F220329046FFF7B2FF044663
:100680000F4640EA0A0041EA0B0153465A46084326
:1006900013D0114653EA010019D0C8F14002504668
:1006A000FFF7AEFF05460E46504659464246FFF755
:1006B00098FF084305D0012004E020463946BDE8F4
:1006C000F08D0020054346EAE0762C4337430A9834
:1006D0006305E40AA0EB08000022FD0A44EA47543F
:1006E0000A3002D500200146E9E7010510196941E9
:1006F000DDE9084500196941BDE8F04DA2E7C1F305
:100700000A52C1F3130140F2FF3341F480119A42BF
:1007100002DA00200146704740F233439A42A2F2C7
:10072000334202DC5242FFF76BBFFFF75ABF0000B3
:1007300030B5041E71F1000404DB4FF00044404268
:1007400064EB0101141E73F1000405DB1C464FF03D
:100750000043524263EB0403994208BF904230BD0C
:10076000064C074D06E0E06840F0010394E80700FE
:1007700098471034AC42F6D3FFF70AFD643C0108F9
:10078000843C010880B582B00190019800F0A0F986
:1007900002B080BD80B582B00190019800F0E2F90E
:1007A00002B080BD80B500F01FFA80BD80B500F0BA
:1007B000A7FA80BD80B582B00190019800F0B8FA28
:1007C00002B080BD80B582B001900198FFF7DAFFDA
:1007D00002B080BD80B582B001900198FFF7DAFFCA
:1007E00002B080BD80B5FFF7DDFF80BD80B5FFF7AB
:1007F000DDFF80BD80B582B001900198FFF7DAFF80
:1008000002B080BD80B582B000F008F8019000F021
:10081000A1F800210090084602B080BD80B598B0D4
:1008200046F20040C4F202000021089007910BF04C
:1008300079FE4FF48001069008460BF063F809A892
:100840003C210590FFF7F4FC0798129024211191A8
:100850000B9014900121159140F22002C2F2000287
:10086000126806320A924FF4005210924FF48062DE
:100870000E920C9042F24C02C4F2010209921790BF
:100880004FF400620F920D904FF4003213920898CB
:10089000079A04911146059A0CF0B0F80899039054
:1008A000084607990CF07AF812F0CEF90499079AE5
:1008B0000DF040FD382102900846029A0191114640
:1008C00012F0EAF9019812F071F9089807990CF002
:1008D00045F8079818B080BD80B584B046F2004056
:1008E000C4F2020000212422039002910CF03AF994
:1008F000039802990CF052F842F20000C4F2010091
:1009000001900AF0F9FE01980299029A00F072FA39
:1009100002990090084604B080BD000080B584B004
:1009200046F20040C4F202000021039002910BF055
:10093000F5FF039802990BF0C1FB42F20000C4F2EC
:10094000010001900AF0CEFE01980AF0E7FD02983E
:1009500004B080BD80B596B000201590149013901F
:100960001290119010900F900E900D900C900B9093
:100970000A9042F20001C4F2010109900846089170
:100980000AF02EFE0121089A0790104600F036F971
:100990000999139114914FF48072159213A9089A32
:1009A000069010460AF0C0FE09990E914FF480128D
:1009B0000F921091022211924FF4407212920EA9DE
:1009C000089A059010460AF0E5FE4FF440310A916E
:1009D00009990B910D9142F20032C4F201020AA969
:1009E000049010460AF0A2FD4FF400710622C0F2F6
:1009F0002032089B0390184602920AF023FF07203A
:100A00000899019008460299019A0AF051FF40F2B4
:100A100005210720C0F25030089A00901046009A35
:100A20000AF010FF08980099019A0AF041FF08980F
:100A30000AF062FE099816B080BD000080B586B04D
:100A400046F20040C4F202000121242205900491E4
:100A50000CF088F8059804990BF0A0FF42F20020F2
:100A6000C4F2010003900AF047FE002002900299B0
:100A7000039A00F0BFF902990190084606B080BDC4
:100A800080B582B046F20040C4F20200012101901C
:100A90000BF044FF01980BF04FFC01980BF094FC15
:100AA00042F20020C4F2010000900AF01BFE009800
:100AB0000AF034FD002002B080BD000080B582B095
:100AC000FFF7A0FE00210190084602B080BD0000A3
:100AD00080B582B00090009842F20001C4F201019A
:100AE000884211D1FFE740F22000C2F20000016805
:100AF00000220A70006806302421FFF799FBFFF7F7
:100B0000EBFE8DF8070028E0009842F20011C4F2D5
:100B10000101884204D1FFE700208DF807001CE0A6
:100B2000009842F20021C4F20101884211D1FFE78E
:100B300040F22400C2F20000016800220A7000683E
:100B400006302421FFF774FBFFF778FF8DF80700CC
:100B500003E000208DF80700FFE79DF8070002B0D2
:100B600080BD000080B582B00090009842F2000184
:100B7000C4F2010188420DD1FFE740F22000C2F229
:100B800000000068017801310170FFF7C7FE8DF8A1
:100B9000070024E0009842F20011C4F201018842EB
:100BA00004D1FFE700208DF8070018E0009842F21A
:100BB0000021C4F2010188420DD1FFE740F2240078
:100BC000C2F200000068017801310170FFF758FFA0
:100BD0008DF8070003E000208DF80700FFE79DF87F
:100BE000070002B080BD000080B582B000F064F85C
:100BF0000190FFF763FF02B080BD000080B584B0B4
:100C00000A4602908DF807100298002804D1FFE7E9
:100C100001208DF80F004BE0029842F20001C4F26F
:100C20000101884210D1FFE79DF80700002805D098
:100C3000FFE74FF480700BF08DF804E04FF4807004
:100C40000BF050F8FFE7FFE7029842F20011C4F200
:100C50000101884210D1FFE79DF80700002805D068
:100C6000FFE74FF400700BF075F804E04FF40070EC
:100C70000BF038F8FFE7FFE7029842F20021C4F2D8
:100C80000101884210D1FFE79DF80700002805D038
:100C9000FFE74FF480600BF05DF804E04FF48060F4
:100CA0000BF020F8FFE7FFE700208DF80F00FFE7CB
:100CB0009DF80F0004B080BD80B58AB00020C4F25A
:100CC00002000121039000F085FD002109910891A7
:100CD0000791069105910491C02204920322059286
:100CE0000222089204AA039B029018460191114621
:100CF0000BF0ECFF0199009008460AB080BD00009F
:100D000081B040F22000C2F20000006880880090AC
:100D1000009806380090009840F6BC414843009087
:100D20000098400000900098C0F30F3001B0704769
:100D300080B59EB01D9000208DF873000DF14E011E
:100D400024220890084611460792FFF771FA0DF128
:100D50002A000799FFF76CFA1D9806300990089849
:100D60008DF87300FFE79DF8730011281DDCFFE785
:100D7000099800889DF873100DF14E0222F81100B9
:100D8000099802300990099800889DF873100DF1B8
:100D90002A0222F81100099802300990FFE79DF815
:100DA000730001308DF87300DDE70DF14E00122164
:100DB0000690059100F0A0FC0DF12A010490084670
:100DC000059A0391114600F097FC10210222069B20
:100DD000029018460191009200F08CF91D9948800C
:100DE00003980199009A00F085F91D9988800020E8
:100DF0001EB080BD80B584B003900291019203982B
:100E0000002804D0FFE703980AF048FDFFE70298A6
:100E1000002804D0FFE702980AF040FDFFE70198A0
:100E2000002804D0FFE701980AF038FDFFE7002012
:100E300004B080BDFFE7FEE780B582B0019000916D
:100E40000198009900F064F802B080BD80B582B0CE
:100E5000019000910198009900F086F802B080BDE1
:100E600080B584B003468DF80F00029101929DF881
:100E70000F000299019A009300F0B2F804B080BD0F
:100E800080B582B0019000910198009900F0EAF8D5
:100E900002B080BD80B500F019F980BD80B500F0CA
:100EA0001BF980BD80B582B0019000910198009936
:100EB000FFF7C2FF02B080BD80B582B00190009103
:100EC00001980099FFF7C2FF02B080BD80B584B0E1
:100ED00003468DF80F00029101929DF80F000299D0
:100EE000019A0093FFF7BCFF04B080BD80B582B0CB
:100EF0000190009101980099FFF7C2FF02B080BDF8
:100F000080B5FFF7C7FF80BD80B5FFF7C7FF80BD85
:100F100084B0039002910020ADF804000090FFE738
:100F20000098029988421BD2FFE79DF805000399BB
:100F3000009A895C48408DF80700BDF804009DF8D0
:100F4000071043F2D472C0F6010232F8111081EAA0
:100F50000020ADF80400FFE7009801300090DFE7C3
:100F6000BDF8040004B0704780B582B001900091D4
:100F70000198009900F002F802B080BD80B586B0FB
:100F800005900491002003900290019000F020F859
:100F900001980390FFE703980499884210D2FFE775
:100FA00005980399405C0290029943F20000C4F254
:100FB00002000AF0E5FFFFE7039801300390EAE73B
:100FC00043F20000C4F202000AF0E2FF06B080BD66
:100FD00080B543F20000C4F202000AF0DFFF80BDDA
:100FE00086B003468DF817000491039200208DF817
:100FF0000A000190FFE70198039988422DD2FFE78C
:101000009DF80A000499019A895C48408DF80B000C
:101010009DF8170001460728009104D0FFE70098CB
:1010200031280AD013E09DF80B0043F6D411C0F626
:101030000101085C8DF80A000AE09DF80B0043F6F8
:10104000D421C0F60101085C8DF80A0000E0FFE73A
:10105000FFE7019801300190CDE79DF80A0006B046
:101060007047000084B003900291002001908DF839
:1010700003000190FFE70198029988420DD2FFE733
:1010800003980199405C9DF8031008448DF8030013
:10109000FFE7019801300190EDE79DF80300C0F5EE
:1010A00080708DF803009DF8030004B070470000C5
:1010B00080B543F20000C4F202000AF041FF40F2A2
:1010C0000401C2F2000101220A7080BD40F2040056
:1010D000C2F200000078704780B5FFF7E9FF4FF4D7
:1010E00080500AF021FC40F20400C2F2000000210E
:1010F000017080BD80B588B004AB94468E460790E1
:10110000ADF81A10ADF81820002005900490ADF845
:101110000E00BDF81800ADF80E000293FFE7BDF811
:101120000E00BDF81A1088421EDAFFE70798BDF8D6
:101130000E1030F81100FFF70EFA41EC100B029878
:1011400090ED001B53EC102B51EC110BFFF77BF8CB
:1011500041EC100B029880ED000BFFE7BDF80E008C
:101160000130ADF80E00DAE704980599BDF81A20B1
:10117000BDF81830D21A019010460091FFF7EBF934
:1011800041EC100B53EC102B01980099FFF774F908
:1011900041EC100B51EC100BFFF7EEF908B080BDDD
:1011A00084B013468C4602908DF80710ADF80420E9
:1011B0000020ADF80200FFE7BDF80200BDF8041002
:1011C000884214DAFFE70298BDF80210405C9DF8EF
:1011D0000710884204D0FFE701208DF80F000AE0D5
:1011E000FFE7BDF802000130ADF80200E4E700209F
:1011F0008DF80F00FFE79DF80F0004B07047000066
:1012000080B584B002468DF80F0002919DF80F0062
:101210000299019200F034F804B080BD80B584B02A
:101220000A4603468DF80F008DF80E109DF80F004A
:101230009DF80E100292019300F034F904B080BDC5
:1012400080B584B002468DF80F0002919DF80F0022
:1012500002990192FFF7D4FF04B080BD80B584B03D
:101260000A4603468DF80F008DF80E109DF80F000A
:101270009DF80E1002920193FFF7D0FF04B080BDDD
:1012800080B584B002468DF80F0002919DF80F00E2
:1012900002994FF47A735943019200F003F804B0B5
:1012A00080BD000080B584B002468DF80F00029129
:1012B00000200190029845F6A121C0F23201884237
:1012C00006D3FFE745F6A020C0F232000290FFE708
:1012D000029840084CF61771CAF29E21A0FB01014A
:1012E000090A01910199B1F5805F04D3FFE740F647
:1012F000FF700190FFE70198B0F57A7F04D9FFE70E
:10130000019804380190FFE79DF80F00032813D1DE
:10131000FFE7019A47F20040C4F200000121C0F249
:10132000102100900AF044FE019A1221C1F24351AB
:1013300000980AF03DFE1BE09DF80F0002280BD13B
:10134000FFE7019A47F20040C4F200000121C0F219
:1013500010210AF02DFE0AE0019A47F20040C4F283
:1013600000000121C0F210210AF022FEFFE7FFE792
:10137000002004B080BD000080B58AB00A46034654
:101380008DF827008DF82610002008900790069011
:10139000059004903821049105909DF826000128BD
:1013A00003D1FFE70020079002E002200790FFE74B
:1013B0009DF82700022805D1FFE71220C1F2435013
:1013C000089004E00120C0F210200890FFE708997F
:1013D00047F20040C4F2000004AA03900AF010FE95
:1013E0000899039A029010460AF0FAFD0899002025
:1013F000039A01901046019A0AF0DAFD01980AB0AA
:1014000080BD000080B582B001468DF807009DF8D0
:101410000700002805D0FFE74FF000500AF07EFBE0
:1014200004E04FF000500AF02FFBFFE7002002B06D
:1014300080BD000080B58AB001468DF827000020ED
:10144000C4F2020001220291114600F0C3F900210A
:101450000891079106910591049103919DF8271039
:10146000032903D1FFE7302003900BE09DF827000C
:10147000022803D1FFE72020039002E01020039010
:10148000FFE7FFE703200490022007900020C4F24A
:10149000020003A90BF01AFC0021019008460AB0D3
:1014A00080BD000080B586B00A4603468DF817005F
:1014B0008DF816109DF8170004920393FFF7BAFFFA
:1014C000012102900846FFF79DFF9DF817100329A0
:1014D0000DD1FFE79DF816100120FFF74DFF9DF895
:1014E0001610022201901046FFF746FF06E09DF815
:1014F00017009DF81610FFF73FFFFFE7002006B02A
:1015000080BD000080B584B046F20040C4F2020005
:101510000BF0D0FA002820D0FFE746F20040C4F2DA
:10152000020000210BF0DEFA002816D0FFE740F29F
:101530002000C2F200000068FFF75CF942F20001EF
:10154000C4F20101039008460291FFF743F90299A2
:1015500001900846FFF736F9FFE704B080BD0000B0
:101560007047000080B546F20040C4F202000BF064
:10157000A9FA002812D0FFE746F20040C4F20200A8
:1015800002210BF0AFFA002808D0FFE740F23C0040
:10159000C2F2000000680FF0EBFBFFE780BD000027
:1015A00080B546F20040C4F202000BF093FA002826
:1015B00012D0FFE746F20040C4F2020007210BF010
:1015C00091FA002808D0FFE740F23C00C2F2000088
:1015D00000680FF0E7FBFFE780BD000070470000E8
:1015E00080B582B00190019800F056F802B080BD3D
:1015F00080B582B00190019800F01AF802B080BD69
:1016000080B582B00190019800280FD0FFE7FFE776
:101610000198411E0191002807D0FFE74FF47A702E
:1016200000F006F804F0E0FEF2E7FFE702B080BD4C
:1016300080B584B00390039800281AD0FFE7039880
:1016400044F6D351C1F26201A0FB0102920902905B
:101650001046019100F020F803980199A0FB0123A6
:101660009B094FF47A7C03FB1C0000920DF018FFDD
:10167000FFE704B080BD000080B582B00190019802
:10168000FFF7AEFF02B080BD80B582B00190019837
:10169000FFF7AEFF02B080BD80B582B00190019827
:1016A00000280ED0FFE70DF0DBFE002804D1FFE795
:1016B00001980DF0E1FE03E00198FFF7A1FFFFE7BD
:1016C000FFE702B080BD000080B582B001900198B4
:1016D00000280ED0FFE711F0C5FBFFE70198411E7F
:1016E0000191002802D0FFE700BFF7E711F0BCFB33
:1016F000FFE702B080BD000084B00A460390ADF859
:101700000A100020ADF80800ADF80600BDF80A1078
:101710000139ADF80410ADF80800FFE7BDF8080086
:10172000BDF8041088423FDAFFE70020ADF806005C
:10173000FFE7BDF80600BDF80410BDF80820891ABF
:1017400088422ADAFFE70398BDF8061000EB410251
:1017500030F811005188884218DAFFE70398BDF885
:10176000061000EB41004088ADF802000398BDF878
:10177000061000EB410230F811005080BDF8020065
:101780000399BDF8062021F81200FFE7FFE7BDF836
:1017900006000130ADF80600CBE7FFE7BDF8080012
:1017A0000130ADF80800B9E7002004B07047000030
:1017B00080B584B00A4603908DF80B1003989DF80D
:1017C0000B10019200F018F804B080BD80B500F055
:1017D00013FA80BD80B584B00A4603908DF80B10D3
:1017E00003989DF80B100192FFF7E2FF04B080BD53
:1017F00080B5FFF7EBFF80BD80B584B00A4602904C
:101800008DF8071002980021C4F2020188422FD1FE
:10181000FFE79DF80700002804D1FFE701200AF048
:1018200063F821E09DF80700012804D1FFE70120BB
:101830000AF08CF817E09DF80700022804D1FFE7B2
:1018400001200AF0BFF80DE09DF80700032804D13D
:10185000FFE701200AF0DEF803E001208DF80F0019
:10186000C6E1FFE7FFE7FFE700208DF80F00BFE1CB
:10187000029840F20041C4F2020188422FD1FFE7F2
:101880009DF80700002804D1FFE702200AF02CF899
:1018900021E09DF80700012804D1FFE702200AF0AB
:1018A00055F817E09DF80700022804D1FFE7022051
:1018B0000AF088F80DE09DF80700032804D1FFE73F
:1018C00002200AF0A7F803E001208DF80F008FE155
:1018D000FFE7FFE7FFE700208DF80F0088E102989F
:1018E00040F60001C4F2020188422FD1FFE79DF8C3
:1018F0000700002804D1FFE7042009F0F5FF21E0EC
:101900009DF80700012804D1FFE704200AF01EF823
:1019100017E09DF80700022804D1FFE704200AF031
:1019200051F80DE09DF80700032804D1FFE70420DB
:101930000AF070F803E001208DF80F0058E1FFE78E
:10194000FFE7FFE700208DF80F0051E1029840F615
:101950000041C4F2020188422FD1FFE79DF8070041
:10196000002804D1FFE7082009F0BEFF21E09DF820
:101970000700012804D1FFE7082009F0E7FF17E07E
:101980009DF80700022804D1FFE708200AF01AF8A2
:101990000DE09DF80700032804D1FFE708200AF0B6
:1019A00039F803E001208DF80F0021E1FFE7FFE7A0
:1019B000FFE700208DF80F001AE1029841F20001C4
:1019C000C4F2020188422FD1FFE79DF807000028EA
:1019D00004D1FFE7102009F087FF21E09DF8070000
:1019E000012804D1FFE7102009F0B0FF17E09DF8AF
:1019F0000700022804D1FFE7102009F0E3FF0DE003
:101A00009DF80700032804D1FFE710200AF002F830
:101A100003E001208DF80F00EAE0FFE7FFE7FFE7B2
:101A200000208DF80F00E3E0029841F20041C4F27B
:101A3000020188422FD1FFE79DF80700002804D15A
:101A4000FFE7202009F050FF21E09DF80700012862
:101A500004D1FFE7202009F079FF17E09DF8070087
:101A6000022804D1FFE7202009F0ACFF0DE09DF82B
:101A70000700032804D1FFE7202009F0CBFF03E093
:101A800001208DF80F00B3E0FFE7FFE7FFE700203C
:101A90008DF80F00ACE0029841F60001C4F202019B
:101AA00088422FD1FFE79DF80700002804D1FFE707
:101AB000402009F019FF21E09DF80700012804D11A
:101AC000FFE7402009F042FF17E09DF807000228D9
:101AD00004D1FFE7402009F075FF0DE09DF80700F5
:101AE000032804D1FFE7402009F094FF03E0012020
:101AF0008DF80F007CE0FFE7FFE7FFE700208DF89F
:101B00000F0075E0029841F60041C4F202018842DC
:101B10002FD1FFE79DF80700002804D1FFE78020C0
:101B200009F0E2FE21E09DF80700012804D1FFE75B
:101B3000802009F00BFF17E09DF80700022804D170
:101B4000FFE7802009F03EFF0DE09DF80700032825
:101B500004D1FFE7802009F05DFF03E001208DF84C
:101B60000F0045E0FFE7FFE7FFE700208DF80F00DB
:101B70003EE0029842F20001C4F20201884233D1F1
:101B8000FFE79DF80700002805D1FFE74FF48070BC
:101B900009F0AAFE24E09DF80700012805D1FFE71F
:101BA0004FF4807009F0D2FE19E09DF8070002287A
:101BB00005D1FFE74FF4807009F004FF0EE09DF8B7
:101BC0000700032805D1FFE74FF4807009F022FFDA
:101BD00003E001208DF80F000AE0FFE7FFE7FFE7D1
:101BE00000208DF80F0003E002208DF80F00FFE7C2
:101BF0009DF80F0004B080BD80B58AB00020C4F20B
:101C0000020001210991FFF7F7FD40F20041C4F203
:101C10000201089008460999FFF7EEFD40F6000121
:101C2000C4F20201079008460999FFF7E5FD40F666
:101C30000041C4F20201069008460999FFF7DCFD55
:101C400041F20001C4F20201059008460999FFF72C
:101C5000D3FD41F20041C4F2020104900846099903
:101C6000FFF7CAFD41F60001C4F2020103900846E5
:101C70000999FFF7C1FD41F60041C4F2020102904B
:101C800008460999FFF7B8FD42F20001C4F20201CB
:101C9000019008460999FFF7AFFD4FF4804100908D
:101CA00008460AF069F80AB080BD000080B584B02B
:101CB0000390029100208DF807000298411E02292E
:101CC000009040D3FFE7009804283CD0FFE700983D
:101CD000082838D0FFE70098102834D0FFE7009894
:101CE000202830D0FFE7009840282CD0FFE700984C
:101CF000802828D0FFE70098B0F5807F23D0FFE749
:101D00000098B0F5007F1ED0FFE70098B0F5806F17
:101D100019D0FFE70098B0F5006F14D0FFE70098E6
:101D2000B0F5805F0FD0FFE70098B0F5005F0AD0F4
:101D3000FFE70098B0F5804F05D0FFE70098B0F5B9
:101D4000004F04D1FFE700208DF8070003E00120D9
:101D50008DF80700FFE79DF80700002805D1FFE791
:101D6000039802990BF03EF804E0039802990BF0F7
:101D700043F8FFE704B080BD80B584B003900291C2
:101D800000208DF807000298411E0229009040D3E0
:101D9000FFE7009804283CD0FFE70098082838D0D7
:101DA000FFE70098102834D0FFE70098202830D0B3
:101DB000FFE7009840282CD0FFE70098802828D023
:101DC000FFE70098B0F5807F23D0FFE70098B0F5DB
:101DD000007F1ED0FFE70098B0F5806F19D0FFE7B5
:101DE0000098B0F5006F14D0FFE70098B0F5805F61
:101DF0000FD0FFE70098B0F5005F0AD0FFE700982A
:101E0000B0F5804F05D0FFE70098B0F5004F04D142
:101E1000FFE700208DF8070003E001208DF80700A0
:101E2000FFE79DF80700002805D1FFE70398029916
:101E30000BF044F804E0039802990BF047F8FFE731
:101E400004B080BD80B586B0059004910392002057
:101E50008DF80B000498411E0229019040D3FFE742
:101E6000019804283CD0FFE70198082838D0FFE704
:101E70000198102834D0FFE70198202830D0FFE7E0
:101E8000019840282CD0FFE70198802828D0FFE750
:101E90000198B0F5807F23D0FFE70198B0F5007F6F
:101EA0001ED0FFE70198B0F5806F19D0FFE70198C9
:101EB000B0F5006F14D0FFE70198B0F5805F0FD048
:101EC000FFE70198B0F5005F0AD0FFE70198B0F591
:101ED000804F05D0FFE70198B0F5004F04D1FFE730
:101EE00000208DF80B0003E001208DF80B00FFE7C8
:101EF0009DF80B00002806D1FFE705980499039A86
:101F00000BF03EF805E005980499039A0BF0AEF843
:101F1000FFE706B080BD000080B584B00390029159
:101F200000208DF807000298411E0229009040D33E
:101F3000FFE7009804283CD0FFE70098082838D035
:101F4000FFE70098102834D0FFE70098202830D011
:101F5000FFE7009840282CD0FFE70098802828D081
:101F6000FFE70098B0F5807F23D0FFE70098B0F539
:101F7000007F1ED0FFE70098B0F5806F19D0FFE713
:101F80000098B0F5006F14D0FFE70098B0F5805FBF
:101F90000FD0FFE70098B0F5005F0AD0FFE7009888
:101FA000B0F5804F05D0FFE70098B0F5004F04D1A1
:101FB000FFE700208DF8070003E001208DF80700FF
:101FC000FFE79DF80700002805D1FFE70398029975
:101FD0000BF084F804E0039802990BF08BF8FFE70C
:101FE00004B080BD40F24400C2F20000007843F229
:101FF0004401C2F200010A68104408607047000002
:1020000080B50CF0C5FB80BD80B588B00A4607904E
:102010008DF81B1000208DF81A000798C079002851
:1020200023D0FFE740F20040C4F202004FF4004129
:1020300005900491FFF7A0FE41F20000C4F20200F7
:10204000FF2100220392FFF7FDFE07980399C1715B
:102050004FF480410598FFF729FE05980499FFF792
:1020600025FE0820FFF730FBFFE79DF81B00002846
:1020700000F08480FFE741F20000C4F20200029009
:102080000AF0A0FEC0B29DF81A1041F080020023B1
:10209000B3EBD01F18BF11468DF81A1002980193A8
:1020A0000AF090FE00F040009DF81A1041F0400246
:1020B000019BB3EB901F18BF11468DF81A100298C0
:1020C0000AF080FE00F020009DF81A1041F0200276
:1020D000019BB3EB501F18BF11468DF81A100298E0
:1020E0000AF070FE00F010009DF81A1041F0100286
:1020F000019BB3EB101F18BF11468DF81A10029800
:102100000AF060FE00F008009DF81A1041F0080285
:10211000019BB3EBD00F18BF11468DF81A1002982F
:102120000AF050FE00F004009DF81A1041F004027D
:10213000019BB3EB900F18BF11468DF81A1002984F
:102140000AF040FE00F002009DF81A1041F0020271
:10215000019BB3EB500F18BF11468DF81A1002986F
:102160000AF030FE9DF81A104FEAC07041F00102EB
:10217000002818BF11468DF81A10FFE79DF81A00C5
:1021800008B080BD80B586B00A4605908DF8131062
:102190000598C079012823D0FFE740F20040C4F23F
:1021A00002004FF4004103900291FFF7E5FD41F278
:1021B0000000C4F20200FF2101220192FFF742FE5B
:1021C00005980199C1714FF480410398FFF7D4FD40
:1021D00003980299FFF76AFD0820FFF775FAFFE7F9
:1021E0009DF813000006002808D4FFE741F2000024
:1021F000C4F202008021FFF759FD07E041F2000020
:10220000C4F202008021FFF7B7FDFFE79DF813003D
:102210004006002808D4FFE741F20000C4F20200A3
:102220004021FFF743FD07E041F20000C4F2020045
:102230004021FFF7A1FDFFE79DF81300800600286D
:1022400008D4FFE741F20000C4F202002021FFF7AA
:102250002DFD07E041F20000C4F202002021FFF74B
:102260008BFDFFE79DF81300C006002808D4FFE7A8
:1022700041F20000C4F202001021FFF717FD07E051
:1022800041F20000C4F202001021FFF775FDFFE7E4
:102290009DF813000007002808D4FFE741F2000072
:1022A000C4F202000821FFF701FD07E041F200003F
:1022B000C4F202000821FFF75FFDFFE79DF813005D
:1022C0004007002808D4FFE741F20000C4F20200F2
:1022D0000421FFF7EBFC07E041F20000C4F202002A
:1022E0000421FFF749FDFFE79DF813008007002850
:1022F00008D4FFE741F20000C4F202000221FFF718
:10230000D5FC07E041F20000C4F202000221FFF711
:1023100033FDFFE79DF81300C007002808D1FFE751
:1023200041F20000C4F202000121FFF7BFFC07E008
:1023300041F20000C4F202000121FFF71DFDFFE79A
:10234000002006B080BD000080B584B00A4603902E
:102350008DF80B100398012101709DF80B00039973
:102360004979884204D0FFE7039800F021F8FFE79D
:102370009DF80B00039948719DF80B00002818BFC9
:1023800001200399487003989DF80B1001F0080292
:1023900001F0040301F0020C01F00101EE46CEF859
:1023A000001011461A46634600F0FAF904B080BDE9
:1023B00080B582B0019001980021017001984170B0
:1023C0000198417101988171019800F00FFB02B0F2
:1023D00080BD000080B5BCB03B9040F20040C4F22C
:1023E0000200022134903391FFF760FC04203499FD
:1023F000329008463299FFF759FC34983399FFF729
:1024000055FC34983399FFF7B7FC40F60000C4F24E
:102410000200012131903091FFF7DCF941F2000117
:10242000C4F202012F900846309A2E911146FFF710
:10243000D1F92E992D9008463099FFF7CBF92E99B6
:102440002C9008463099FFF7C5F92E992B90084635
:102450003099FFF7BFF92E992A9008463099FFF777
:10246000B9F92E99299008463099FFF7B3F92E99BA
:10247000289008463099FFF7ADF92E992790084625
:102480003099FFF7A7F940F60041C4F20201269007
:102490000846309A25911146FFF79CF92E99249011
:1024A00008463099FFF796F92E99239008463099FF
:1024B000FFF790F92E99229008463099FFF78AF994
:1024C0002E99219008463099FFF784F92E99209093
:1024D00008463099FFF77EF92E991F9008463099EB
:1024E000FFF778F92E991E9008463099FFF772F998
:1024F0002E991D9008463099FFF76CF934991C907D
:1025000008463099FFF766F934991B9008463099D0
:10251000FFF760F900213A9139913891379136915E
:102520003591309A369203233793389139923A9104
:102530004FF4004335930DF1D40CDDF8D0E01A9040
:102540007046199161461893CDF85CC00AF0BEFB45
:102550004FF480413591349A16901046179B15918F
:1025600019460AF0B3FB3499149008461599FFF701
:1025700003FC34981899FFF799FB102035902599A2
:102580001390084617990AF0A1FB25991290084666
:102590001399FFF78BFB189835901999369131985C
:1025A00017990AF093FB3199119008461899FFF793
:1025B000E3FB4FF400703590309936912E9A1090CD
:1025C000104617990AF082FB2E990F900846109931
:1025D000FFF7D2FB4FF4806035902E990E9008469D
:1025E00017990AF073FB2E990D9008460E99FFF784
:1025F000C3FB4FF4006035902E990C900846179954
:102600000AF064FB2E990B9008460C99FFF74EFBDD
:102610004FF4805035902E990A90084617990AF089
:1026200055FB2E99099008460A99FFF7A5FB4FF430
:10263000005035902E990890084617990AF046FBED
:102640002E99079008460899FFF796FB1598359044
:102650002E9817990AF03AFB2E990690084615997C
:10266000FFF724FB4FF4807035902E9905900846B3
:1026700017990AF02BFB2E99049008460599FFF74D
:1026800015FB189835902E9817990AF01FFB2E9974
:10269000039008461899FFF709FBFF2035902E9903
:1026A0000290084617990AF011FB2E9901900846EE
:1026B0000299FFF761FB199836902E9817990AF046
:1026C00005FB3B99199ACA71259900900846139900
:1026D000FFF752FB34983399FFF7E8FA34983299B0
:1026E000FFF7E4FA34983399FFF7E0FA19983CB011
:1026F00080BD000080B586B00590049103920293DE
:102700000598002101700598052202710598417015
:10271000059881700598C17005984171059881717F
:1027200005980121017205984FF4FA71818205988C
:102730004FF44871C1820498002804D0FFE7049840
:102740000599086206E0059841F28961C0F600012A
:102750000162FFE70398002804D0FFE7039805997A
:10276000486206E0059841F27961C0F600014162D5
:10277000FFE70298002804D0FFE702980599C86196
:1027800006E005984FF28941C0F60001C161FFE7FC
:102790000598FFF71FFE00210190084606B080BD96
:1027A000B0B594B0DDF860C09E4614460D46139057
:1027B0008DF84B108DF84A208DF849308DF848C0BF
:1027C00040F20040C4F20200022111901091CDF8B5
:1027D0003CE00E940D95FFF769FA04211198FFF77C
:1027E00065FA11981099FFF761FA11981099FFF79F
:1027F000C3FA1398C07800280FD1FFE740F20040D9
:10280000C4F202004FF400710C90FFF74FFA4FF43E
:1028100080710C98FFF7B0FA0EE040F20040C4F26D
:1028200002004FF400710B90FFF740FA4FF48071F3
:102830000B98FFF73BFAFFE71398406A01210A90D3
:1028400008460A9A0991904740F20040C4F20200FB
:102850004FF480410890FFF78FFA4FF40041089839
:10286000FFF724FA41F20000C4F20200FF210790B2
:10287000099AFFF7E7FA4FF47F410798099AFFF7A3
:10288000E1FA41F21400C4F202000168362262F358
:102890001F21016040F60040C4F202001021FFF742
:1028A00005FA0820FEF710FF1398C078002812D10F
:1028B000FFE740F20040C4F202004FF4807106903E
:1028C000FFF7F4F94FF400710698FFF755FA01206D
:1028D000FEF7D2FE0EE040F20040C4F202004FF4D8
:1028E00000710590FFF7E2F94FF480710598FFF74A
:1028F000DDF9FFE71398406A052104900846049922
:1029000088471398082100F065F99DF84B000028CE
:1029100009D0FFE741F20000C4F202004FF4804109
:10292000FFF72AFA08E041F20000C4F202004FF477
:102930008041FFF7BBF9FFE79DF84A00002809D066
:10294000FFE741F20000C4F202004FF40051FFF72C
:1029500013FA08E041F20000C4F202004FF4005103
:10296000FFF7A4F9FFE79DF84900002809D0FFE729
:1029700041F20000C4F202004FF48051FFF7FCF96D
:1029800008E041F20000C4F202004FF48051FFF76A
:102990008DF9FFE79DF84800002809D0FFE741F2D4
:1029A0000000C4F202004FF40061FFF7E5F908E00F
:1029B00041F20000C4F202004FF40061FFF776F923
:1029C000FFE71398006A052103900846039A0291D5
:1029D00090471398006A029901900846019A90471F
:1029E00013980121C171002014B0B0BD80B588B02A
:1029F000079040F20040C4F20200022106900591C7
:102A0000FFF754F904210698FFF750F90698059945
:102A1000FFF74CF906980599FFF7AEF941F200006F
:102A2000C4F20200FF210022FFF70CFA4FF48041AC
:102A30000698FFF73BF94FF400410698FFF736F987
:102A400040F60040C4F202001021FFF795F9079804
:102A5000C07800280FD1FFE740F20040C4F2020026
:102A60004FF400710490FFF721F94FF4807104983E
:102A7000FFF782F90EE040F20040C4F202004FF48A
:102A800000710390FFF712F94FF480710398FFF77C
:102A90000DF9FFE70798406A012102900846029964
:102AA000884740F20040C4F20200022101900091E8
:102AB000FFF7FCF804210198FFF7F8F80198009956
:102AC000FFF7F4F807980021C171084608B080BDEF
:102AD00080B58CB00B900A9100208DF8270041F250
:102AE0000001C4F202014FF4005208900846079119
:102AF0001146FFF741F94FF480510798FFF7D6F8D8
:102B00004FF480710798FFF7D1F84FF400610798F0
:102B1000FFF7CCF80B980821FFF734FB0B990690D0
:102B2000084600F087F808988DF82700FFE79DF821
:102B3000270002284BDCFFE741F20000C4F202004C
:102B40004FF400510590FFF7B1F84FF4805105980C
:102B5000FFF7ACF84FF480710598FFF7A7F84FF432
:102B600000600599049008460499FFF79FF80B98B8
:102B70009DF82710FFF706FB0B990390084600F01D
:102B800059F805980499FFF791F80B980021FFF781
:102B90003BFA4FF40071059A029010460191FFF73D
:102BA00085F80820FEF790FD0B980121FFF72CFA1D
:102BB0000A994A1C0A92087005980199FFF7DCF8F7
:102BC000FFE79DF8270001308DF82700AFE70020D0
:102BD0000CB080BD80B584B00A4603908DF80B1010
:102BE00000208DF80A00FFE79DF80A009DF80B1001
:102BF00088421DDAFFE70398016A0079884741F2AD
:102C00000000C4F202004FF4004101900091FFF770
:102C1000B3F80398016A0079884701980099FFF793
:102C200045F8FFE79DF80A0001308DF80A00DBE760
:102C300004B080BD80B584B003900398016A007928
:102C4000884741F20000C4F202004FF400410290B4
:102C50000191FFF791F80398016A0079884702987B
:102C60000199FFF723F804B080BD000080B500F0A3
:102C700003F8FFE7FEE700001EF0040F0CBFEFF3C0
:102C80000880EFF3098000F001B8704781B0009030
:102C900040F2A010C2F200000021C16181614161D7
:102CA0000161C16081604160016000990968016053
:102CB0000099496841600099896881600099C968F4
:102CC000C1600099096901610099496941610099F0
:102CD000896981610099C969C16101BE01B070470C
:102CE00080B592B040F20040C4F2020001210B9086
:102CF0000A91FEF76FFD0B99099008460A99FEF7B5
:102D000069FD0B99089008460A99FEF763FD0021BA
:102D1000119110910F910E910D910C910A9A0D92B3
:102D20000E920F911092119102210C910CABDDF8D3
:102D30002CC00790604606911946059309F0C6FF1E
:102D40000B99049008460699FEF7B0FF04200C90FA
:102D50000B9903900846059909F0B8FF0B9902906A
:102D600008460399FEF7A2FF06980C900B98059968
:102D700009F0ACFF0B99019008460699FEF796FF03
:102D800012B080BD80B584B0039002910192039887
:102D90000299019A00F084F804B080BD80B582B039
:102DA0000190019800F0E0F802B080BD80B584B0D9
:102DB0000A4603908DF80B100398019200F00CF96D
:102DC0009DF80B10002906D0FFE70398818A01F0D7
:102DD000FE01818205E00398818A41F00101818230
:102DE000FFE70398017D00F0B3F9039900900846CE
:102DF00000F0BAF804B080BD80B582B001900198AF
:102E000000F02EF902B080BD80B584B00A46039070
:102E10008DF80B1003989DF80B10019200F098F9B3
:102E200004B080BD82B001900091012002B07047D3
:102E300080B584B003900291019203980299019A9F
:102E4000FFF7A0FF04B080BD80B582B0019001986B
:102E5000FFF7A4FF02B080BD80B584B00A4603909E
:102E60008DF80B1003989DF80B100192FFF79EFF51
:102E700004B080BD80B582B001900198FFF7BCFF1F
:102E800002B080BD80B584B00A4603908DF80B1067
:102E900003989DF80B100192FFF7B6FF04B080BDB8
:102EA00080B590B00F900E910D920F98006801219F
:102EB0000691FEF78FFC0F998968059008460699E0
:102EC000FEF788FC00210C910B910A910991089161
:102ED00007910F9A52680792069A08920223099363
:102EE0000A920B920C910F99096807AB049008465F
:102EF0001946039309F0EAFE0F990A68496802909F
:102F00001046FEF739FF0F98C06807900F98806849
:102F1000039909F0DBFE0F998A68C9680190104691
:102F2000FEF72AFF0E98002804D0FFE70E980F99AD
:102F3000C86106E00F9841F28961C0F60001C161E5
:102F4000FFE70D98002804D0FFE70D980F9948621D
:102F500006E00F984FF28941C0F600014162FFE799
:102F6000002010B080BD000080B586B00590002024
:102F70008DF8130005988168C0680390084603998E
:102F8000FEF7FAFE0598016840680290084602992B
:102F9000FEF7F2FE0598408A012805DBFFE7059859
:102FA000C169408A8847FFE70598806809F0F8FE04
:102FB0000599C9680840002818BF01208DF8130042
:102FC000059801684068019008460199FEF76EFE79
:102FD0009DF8130006B080BD80B586B005900598B9
:102FE0008168C068049008460499FEF7C5FE0598FC
:102FF00001684068039008460399FEF7BDFE0598F6
:10300000408A012805DBFFE70598C169408A8847A7
:10301000FFE705988168C068029008460299FEF7AC
:1030200045FE0598408A012805DBFFE70598C16940
:10303000408A8847FFE70598016840680190084684
:103040000199FEF733FE0598806809F0A9FE0599FD
:10305000C9680840002818BF012006B080BD0000E4
:1030600080B584B0039003988168C06802900846D8
:103070000299FEF71BFE039801684068019008461C
:103080000199FEF779FE0398408A012805DBFFE7E6
:103090000398C169408A8847FFE703988168C06840
:1030A000009008460099FEF767FE0398408A0128C1
:1030B00005DBFFE70398C169408A8847FFE703986B
:1030C000806809F06DFE0399C9680840B0FA80F085
:1030D000400904B080BD000080B586B00A46059066
:1030E0008DF813109DF813000006002809D5FFE79E
:1030F00005988168C068039008460399FEF73CFE76
:1031000008E005988168C068029008460299FEF7B9
:10311000CDFDFFE7059801684068019008460199D8
:10312000FEF72AFE0598C169408A88470220FEF70B
:10313000CBFA059801684068009008460099FEF7B0
:10314000B5FD0598C169408A8847002006B080BD5A
:1031500080B584B00A4603908DF80B1000208DF8DE
:103160000A0003990B684968019018460092FEF71F
:103170009DFD01988DF80A00FFE79DF80A000728D9
:1031800011DCFFE703989DF80B10FFF7A5FF9DF8F2
:103190000B1049008DF80B10FFE79DF80A00013075
:1031A0008DF80A00E9E7002004B080BD80B584B046
:1031B00013468C4603908DF80B108DF80A200020E2
:1031C0008DF8090003980078002807D1FFE70398DD
:1031D000817901F0ABFB8DF80900FFE79DF809004C
:1031E00000281FD1FFE7039802F0DAF903999DF850
:1031F0000B209DF80A300190084611461A4601F04E
:10320000D9F98DF809009DF80900002818BF0120A0
:103210004FEA40008DF8090003984FF0640102F076
:10322000DDFB03E001208DF80900FFE79DF80900B0
:1032300004B080BDB0B586B0DDF828C09E46144607
:103240000D4605908DF813108DF812208DF8113071
:103250008DF810C000208DF80F0005980078002828
:1032600007D1FFE70598817901F060FB8DF80F0029
:10327000FFE79DF80F00002827D1FFE7059802F02F
:103280008FF905999DF813209DF812309DF811C013
:103290009DF810E06C46C4F800E002900846114624
:1032A0001A46634601F0ECF98DF80F009DF80F0007
:1032B000002818BF01204FEA40008DF80F00059844
:1032C0004FF0640102F08AFB03E001208DF80F004B
:1032D000FFE79DF80F0006B0B0BD000080B586B0D6
:1032E0000B4605908DF81310039205989DF8131066
:1032F000019301F01BFB8DF80B009DF80B000028DB
:1033000007D1FFE70598039902F03CFB8DF80B000D
:10331000FFE79DF80B0006B080BD000080B584B0CB
:10332000039000208DF80B0003980078002807D147
:10333000FFE70398817901F0F9FA8DF80B00FFE7B8
:103340009DF80B00002819D1FFE7039802F028F937
:1033500003990190084601F07DFB8DF80B009DF864
:103360000B00002818BF01204FEA40008DF80B0029
:1033700003984FF0640102F031FB03E001208DF867
:103380000B00FFE79DF80B0004B080BD80B582B054
:103390000190019801F09AFB02B080BD80B584B025
:1033A000039002910192009303980299019A009B65
:1033B00001F060FC04B080BD80B584B0134603907A
:1033C00002918DF8072000208DF806000398007800
:1033D000002807D1FFE70398817901F0A7FA8DF85B
:1033E0000600FFE79DF8060000281ED1FFE70398BE
:1033F00002F0D6F80399029A9DF80730009008462B
:1034000011461A4601F024FD8DF806009DF80600CD
:10341000002818BF01204FEA40008DF806000398ED
:103420004FF0640102F0DAFA03E001208DF80600A3
:10343000FFE79DF8060004B080BD000010B586B01F
:10344000DDF820C09E461446059004918DF80F20AB
:103450008DF80E30ADF80CC000208DF80B000598EB
:103460000078002807D1FFE70598817901F05EFA1E
:103470008DF80B00FFE79DF80B00002826D1FFE731
:10348000059802F08DF80599049A9DF80F309DF883
:103490000EC0BDF80CE06C46C4F800E00190084690
:1034A00011461A46634601F01BFD8DF80B009DF88E
:1034B0000B00002818BF01204FEA40008DF80B00D8
:1034C00005984FF0640102F089FA03E001208DF8BD
:1034D0000B00FFE79DF80B0006B010BDB0B588B03B
:1034E000DDF834C0DDF830E01C4615460790069143
:1034F0008DF817208DF816308DF815E0ADF812C054
:1035000000208DF8110007980078002807D1FFE708
:103510000798817901F00AFA8DF81100FFE79DF80C
:103520001100002829D1FFE7079802F039F8079920
:10353000069A9DF817309DF816C09DF815E0BDF865
:1035400012406D466C60C5F800E0039008461146D5
:103550001A46634601F040FD8DF811009DF81100F8
:10356000002818BF01204FEA40008DF8110007988D
:103570004FF0640102F032FA03E001208DF81100EF
:10358000FFE79DF8110008B0B0BD000080B584B021
:103590001346039002918DF8072000208DF8060055
:1035A00003980078002807D1FFE70398817901F09C
:1035B000BDF98DF80600FFE79DF8060000281ED132
:1035C000FFE7039801F0ECFF0399029A9DF807309A
:1035D0000090084611461A4601F0F4FD8DF80600E9
:1035E0009DF80600002818BF01204FEA40008DF822
:1035F000060003984FF0640102F0F0F903E00120A7
:103600008DF80600FFE79DF8060004B080BD0000BD
:1036100080B584B00390029100208DF807000398D4
:103620000078002807D1FFE70398817901F07EF93F
:103630008DF80700FFE79DF8070000281BD1FFE782
:10364000039801F0ADFF0399029A009008461146D5
:1036500001F03AFE8DF807009DF80700002818BF1A
:1036600001204FEA40008DF8070003984FF06401F5
:1036700002F0B4F903E001208DF80700FFE79DF8A0
:10368000070004B080BD000080B584B003900291B3
:1036900000208DF8070003980078002807D1FFE785
:1036A0000398817901F042F98DF80700FFE79DF852
:1036B000070000281BD1FFE7039801F071FF039971
:1036C000029A00900846114601F040FE8DF807006E
:1036D0009DF80700002818BF01204FEA40008DF830
:1036E000070003984FF0640102F078F903E001202D
:1036F0008DF80700FFE79DF8070004B080BD0000CB
:1037000080B586B09C469646059004918DF80F20B2
:10371000ADF80C3000208DF80B00059800780028DB
:1037200007D1FFE70598817901F000F98DF80B00CA
:10373000FFE79DF80B00002821D1FFE7059801F075
:103740002FFF0599049A9DF80F30BDF80CC0019029
:10375000084611461A46634601F018FE8DF80B0024
:103760009DF80B00002818BF01204FEA40008DF89B
:103770000B0005984FF0640102F030F903E00120DE
:103780008DF80B00FFE79DF80B0006B080BD000030
:1037900080B582B0019000910198009902F0F2F892
:1037A00002B080BD80B584B00A4603908DF80B103E
:1037B00003989DF80B10019202F024F904B080BD2B
:1037C00070B588B0DDF834C0DDF830E01C46154631
:1037D000079006918DF817208DF816308DF815E0BA
:1037E000ADF812C0079806999DF817209DF816307D
:1037F0009DF815C0BDF812E06E46C6F804E0C6F8A4
:1038000000C00394029502F06BFC08B070BD00008C
:1038100080B584B01346039002918DF807200020F4
:103820008DF8060003980078002807D1FFE7039879
:10383000817901F07BF88DF80600FFE79DF806001E
:1038400000281ED1FFE7039801F0AAFE0399029A0F
:103850009DF807300090084611461A4602F0BAFC5F
:103860008DF806009DF80600002818BF01204FEAD9
:1038700040008DF8060003984FF0640102F0AEF8A6
:1038800003E001208DF80600FFE79DF8060004B074
:1038900080BD000080B584B00A4603908DF80B10FF
:1038A00000208DF80A0003980078002807D1FFE770
:1038B0000398817901F03AF88DF80A00FFE79DF846
:1038C0000A0000281CD1FFE7039801F069FE039964
:1038D0009DF80B2001900846114602F03DFD8DF841
:1038E0000A009DF80A00002818BF01204FEA400096
:1038F0008DF80A0003984FF0640102F06FF803E0BE
:1039000001208DF80A00FFE79DF80A0004B080BD91
:1039100080B584B013468C4603908DF80B108DF85B
:103920000A2003989DF80B109DF80A200193CDF80A
:1039300000C0FFF73BFC04B080BD000070B586B04E
:10394000DDF828C09E4614460D4605908DF81310EC
:103950008DF812208DF811308DF810C005989DF863
:1039600013109DF812209DF811309DF810C06E467E
:10397000C6F800C0CDF80CE002940195FFF75AFCA0
:1039800006B070BD80B584B00B4603908DF80B1067
:10399000019203989DF80B10019A0093FFF79EFC8B
:1039A00004B080BD80B582B001900198FFF7B6FCED
:1039B00002B080BD80B582B001900198FFF7E6FCAF
:1039C00002B080BD80B584B0039002910192009353
:1039D00003980299019A009BFFF7E0FC04B080BDB8
:1039E00080B584B01346039002918DF807200398A8
:1039F00002999DF807200093FFF7DEFC04B080BD1C
:103A0000B0B586B0DDF828C09E46144605900491F6
:103A10008DF80F208DF80E30ADF80CC00598049984
:103A20009DF80F209DF80E30BDF80CC06D46C5F80E
:103A300000C0CDF808E00194FFF700FD06B0B0BD6E
:103A400070B588B0DDF834C0DDF830E01C461546AE
:103A5000079006918DF817208DF816308DF815E037
:103A6000ADF812C0079806999DF817209DF81630FA
:103A70009DF815C0BDF812E06E46C6F804E0C6F821
:103A800000C003940295FFF729FD08B070BD000047
:103A900080B584B01346039002918DF807200398F7
:103AA00002999DF807200093FFF770FD04B080BDD8
:103AB00080B582B00190009101980099FFF7A8FDB0
:103AC00002B080BD80B582B001900091019800994C
:103AD000FFF7DAFD02B080BD80B584B0039002919B
:103AE000FCF784FEADF806009DF8070002994A1C19
:103AF000029208709DF8060002990870002004B038
:103B000080BD000080B586B09C4696460590049125
:103B10008DF80F20ADF80C30059804999DF80F2012
:103B2000BDF80C30CDF808C0CDF804E0FFF7E8FD93
:103B300006B080BD80B582B00190009101980099D7
:103B4000FFF726FE02B080BD80B584B00A46039020
:103B50008DF80B1003989DF80B100192FFF722FED1
:103B600004B080BD80B588B01346079006918DF8EB
:103B7000172000208DF81600069904900846049935
:103B800003930DF05BF89DF81710002918BF012171
:103B9000069A117306990A6F4B7A097B1944515C96
:103BA000A1F110010A460C29029264D80299DFE8BB
:103BB00001F0070E151C232A31383F464D545B0097
:103BC0000798069900F0D0F88DF8160057E007988E
:103BD000069900F05FF88DF8160050E007980699F6
:103BE00000F0B6F98DF8160049E00798069900F044
:103BF00065FB8DF8160042E00798069900F052F92F
:103C00008DF816003BE00798069900F003FB8DF84D
:103C1000160034E00798069900F0F4F98DF81600C4
:103C20002DE00798069900F0A3FB8DF8160026E01A
:103C30000798069900F0B0FB8DF816001FE0079872
:103C4000069900F025FA8DF8160018E007980699F5
:103C500000F004F98DF8160011E00798069900F0BD
:103C60002FFA8DF816000AE00798069900F072FA0C
:103C70008DF8160003E001208DF81600FFE7069886
:103C80009DF816100CF0F6FF9DF8161001900846EE
:103C900008B080BD80B586B00590049100208DF8F5
:103CA0000F000498016F827A007B1044085C0028A2
:103CB00006D1FFE70598FFF775FE8DF80F003FE08E
:103CC0000498016F827A007B1044085C012817D1A8
:103CD000FFE7059804990A6F8B7A097B1944114410
:103CE0004A788B7891F803C00979EE46CEF8001037
:103CF00011461A466346FFF721FE8DF80F001EE0BD
:103D00000498016F827A007B1044085C022811D16C
:103D1000FFE7059804990A6F8B7A097B19441144CF
:103D20004A78897802911146029AFFF7F1FD8DF8E1
:103D30000F0003E0FF208DF80F00FFE7FFE7FFE72C
:103D40000498016F827A007B1044085C002806D03A
:103D5000FFE704989DF80F100CF070FFFFE79DF847
:103D60000F0006B080BD000080B584B003900291C2
:103D700000208DF807000298016F827A007B1044C2
:103D8000085C012812D1FFE7039802990A6FCB7AE9
:103D9000097B03EB010C12F80CC01A4411444A1CB5
:103DA0006146FFF7EFFD8DF807001CE00298016FF8
:103DB000827A007B1044085C02280DD1FFE703984B
:103DC00002990A6FCB7A097B1A4411440131FFF73B
:103DD000B1FE8DF8070005E00398FFF7EBFD8DF8C5
:103DE0000700FFE7FFE79DF8070004B080BD000073
:103DF00080B588B01346079006918DF817200020F3
:103E00008DF8160006989DF8171004930CF024FF07
:103E10000799069A9DF817300390084611461A46EE
:103E2000FFF7A0FE069991F8291001290CD1FFE7B0
:103E300006980D210CF002FF06990A22029008460E
:103E400011460CF0FBFEFFE7069800210CF020FF66
:103E50009DF816100190084608B080BD80B584B06A
:103E60000390029100208DF80700039802994A6C94
:103E7000498D1144029A136F92F80AC0127B624472
:103E80009A5CFFF7ADFD8DF807000298016F827A0A
:103E9000037B1A44895C428D114441859DF80700DB
:103EA00004B080BD80B584B00390029100208DF8ED
:103EB0000700ADF804000298B0F85E00FE280ADCA6
:103EC000FFE70298016FC27A007B104408444078F3
:103ED000ADF8040016E00298016FC27A007B10442E
:103EE00008444078ADF80400BDF8040002990A6F58
:103EF000CB7A097B19441144897841EA0020ADF856
:103F00000400FFE7039802994A6C498D1144029A14
:103F1000136F92F80AC092F80BE0127B944413F8E6
:103F20000CC072449B5CBDF80420EE46CEF8002025
:103F30006246FFF765FD8DF80700BDF804000299A1
:103F40004A8D104448859DF8070004B080BD0000EC
:103F500010B586B00590049100208DF80F00ADF8E3
:103F60000C000498B0F85E00FE280ADCFFE7049815
:103F7000016FC27A007B104408448078ADF80C00D1
:103F800016E00498016FC27A007B104408448078E0
:103F9000ADF80C00BDF80C0004990A6FCB7A097BD0
:103FA00019441144C97841EA0020ADF80C00FFE73C
:103FB000059804994A6C498D1144049A136F92F83C
:103FC0000AC092F80BE0127B944413F80CC07244C0
:103FD00003EB020E9B5C9EF80120BDF80CE06C46E2
:103FE000C4F804E022606246FFF72AFD8DF80F0056
:103FF000BDF80C0004994A8D104448859DF80F00C7
:1040000006B010BD80B584B00390029100208DF8F9
:1040100007000298016F827A007B1044085C002838
:1040200023D1FFE7039802994A6C498D1144029A03
:10403000136F92F80BC0127B62449A5CFFF728FD65
:104040008DF807000298016FC27A007B1044085C6B
:10405000002805D0FFE70298418D01314185FFE737
:104060000298418D023141850DE0039802994A6C16
:10407000498D1144FFF726FD8DF807000298418D08
:1040800001314185FFE79DF8070004B080BD0000C5
:1040900080B584B00390029100208DF8070003984A
:1040A00002994A6C498D1144FFF702FD8DF8070013
:1040B0000298418D033141859DF8070004B080BD11
:1040C00080B584B00390029100208DF80700ADF810
:1040D00004000298B0F85E00FE2809DCFFE70298B1
:1040E000016FC27A007B1044085CADF8040015E053
:1040F0000298016FC27A007B1044085CADF804009E
:10410000BDF8040002990A6FCB7A097B1944114467
:10411000497841EA0020ADF80400FFE703980299CE
:104120004A6C498D1144029A136F92F80AC0127BAF
:1041300062449A5CBDF80430FFF7E4FC8DF8070098
:10414000BDF8040002994A8D104448859DF8070087
:1041500004B080BD80B584B00390029100208DF83A
:1041600007000298016F827A007B1044085C0128E6
:1041700011D1FFE7039802994A6C8B7A097B1A44A4
:1041800011440131FFF7A8FC8DF807000298418D1A
:104190000231418523E00298016F827A007B10444E
:1041A000085C02280DD1FFE7039802990A6F8B7A09
:1041B000097B1A441144013100F064F98DF80700BD
:1041C0000CE0039802990A6F8B7A097B1944114419
:1041D0004978FFF7B9FC8DF80700FFE7FFE79DF886
:1041E000070004B080BD000080B584B00390029148
:1041F00000208DF807000399029A009008461146A6
:10420000009AFFF7F5FD8DF807009DF8070004B050
:1042100080BD000010B586B00590049100208DF897
:104220000F00ADF80C000498B0F85E00FE280DDC1D
:10423000FFE70498016FC27A007B1044084440787D
:10424000ADF80C0002208DF80F0019E00498016F02
:10425000C27A007B104408444078ADF80C00BDF8E9
:104260000C0004990A6FCB7A097B194411448978B0
:1042700041EA0020ADF80C0003208DF80F00FFE7A5
:10428000059804990A6F8B7A91F80BC0097B02EBB1
:104290000C0E8E449DF80F40A6440B44D35C614441
:1042A000515CBDF80C20EC46CCF800200291714620
:1042B0001A46029B00F080F806B010BD10B586B01B
:1042C0000590049100208DF80F00ADF80C000498C3
:1042D000B0F85E00FE280DDCFFE70498016FC27A9B
:1042E000007B104408448078ADF80C0003208DF862
:1042F0000F0019E00498016FC27A007B1044084453
:104300008078ADF80C00BDF80C0004990A6FCB7AE8
:10431000097B19441144C97841EA0020ADF80C002A
:1043200004208DF80F00FFE7059804990A6F8B7A37
:1043300091F80BC0097B02EB0C0E8E449DF80F40E8
:10434000A6440B44D35C614402EB010C515C9CF825
:104350000120BDF80CC06C46C4F804C02260029174
:1043600071461A46029B00F047F806B010BD0000E7
:1043700080B582B001900091019800990A6F8B7A04
:1043800091F80BC0097B94448C441944525C6146FB
:1043900000F05AF802B080BD80B582B00190009163
:1043A000019800990A6F8B7A097B1944515C00F0DF
:1043B0005BF802B080BD0000B0B586B0DDF828C063
:1043C0009E461446059004918DF80F208DF80E300E
:1043D000ADF80CC0059804999DF80F209DF80E309B
:1043E000BDF80CC06D46C5F800C0CDF808E00194DA
:1043F00001F036FD06B0B0BD70B588B0DDF834C050
:10440000DDF830E01C461546079006918DF8172020
:104410008DF816308DF815E0ADF812C007980699A2
:104420009DF817209DF816309DF815C0BDF812E0D4
:104430006E46C6F804E0C6F800C003940295FFF784
:10444000BFF908B070BD000080B584B0134603907A
:1044500002918DF80720039802999DF80720009398
:10446000FFF7D6F904B080BD80B584B00A4603904A
:104470008DF80B1003989DF80B100192FFF70AFAC4
:1044800004B080BD80B586B0059004910498411CAD
:1044900004910078ADF80E00BDF80E0004994A1C96
:1044A0000492097841EA0020ADF80E00BDF80E1024
:1044B000002009F005FD04990978012912DBFFE7C6
:1044C00040F20040C4F202004FF480710290FDF708
:1044D000EDFB4FF400710298FDF74EFC0120FDF753
:1044E000CBF80EE040F20040C4F202004FF400713D
:1044F0000190FDF7DBFB4FF480710198FDF7D6FBCF
:10450000FFE7002006B080BD80B582B0019000209A
:104510008DF803000198002832D0FFE7019801F0E0
:104520003FF88DF80300019840F23001C2F200011B
:104530000968884207D1FFE744F28950C0F60000BD
:104540000AF092FF1BE00198002807D1FFE744F230
:104550009D50C0F600000AF087FF0FE00198002888
:1045600007D1FFE744F2A950C0F600000AF07CFF33
:1045700003E001208DF80300FFE7FFE7FFE7FFE717
:104580009DF8030002B080BD80B540F23000C2F259
:104590000000006801F034FC80BD000080B5002000
:1045A00001F02EFC80BD000080B5002001F028FC49
:1045B00080BD000080B586B013468C4605908DF80E
:1045C00013108DF8122000208DF811008DF81000C6
:1045D000ADF80E009DF813000193CDF800C009F06E
:1045E0005BFD02900298002804D1FFE701208DF8BE
:1045F00011003DE000208DF81000FFE79DF810004D
:104600009DF81210884232DAFFE705980299BDF84A
:104610000E209DF8133000F0BFFC8DF811009DF8BE
:104620001100002804D0FFE702208DF811001FE0E0
:1046300002989DF81320FF21FCF7B2FD8DF81100C0
:104640009DF81100002804D0FFE703208DF8110029
:104650000EE09DF81300BDF80E100844ADF80E00F2
:10466000FFE79DF8100001308DF81000C6E7FFE766
:10467000029809F0FBFC9DF8110006B080BD000017
:10468000B0B58AB0DDF838C09E4614460D46099094
:104690008DF823108DF822208DF821308DF820C060
:1046A00000208DF81F00ADF81C00ADF81A00ADF821
:1046B000180005909DF82300ADF81C00BDF81C0003
:1046C0009DF8221041EA0020ADF81C009DF8210061
:1046D000ADF81A00BDF81A009DF8201041EA00203C
:1046E000ADF81A00BDF81C00CDF80CE0029401955D
:1046F00009F0D2FC04900498002804D1FFE70120BF
:104700008DF81F003BE00020ADF81800FFE7BDF872
:104710001800BDF81A10884230DAFFE709980499AA
:10472000059ABDF81C3000F02DFD8DF81F009DF896
:104730001F00002804D0FFE702208DF81F001EE0B4
:104740000498BDF81C20FF21FCF72AFD8DF81F00FE
:104750009DF81F00002804D0FFE703208DF81F00FC
:104760000DE0BDF81C00059901EB50000590FFE736
:10477000BDF818000130ADF81800C8E7FFE704984D
:1047800009F074FC9DF81F000AB0B0BD80B584B07C
:1047900003900398283001210AF032F9039900228E
:1047A0004A700399896F02901046019288470398D6
:1047B000C169006A009008460099FDF7DDFA01988A
:1047C00004B080BD81B00090009800210170009875
:1047D000417000980F2282700098416200984171E8
:1047E000009881710098C1710098018100988181C1
:1047F00000984FF4FA72C2820098C0F80E10009828
:10480000C0F81210009840F60042C4F20202C261E1
:1048100000984FF480620262009844F67D02C0F670
:1048200000028267009840F20042C4F202028263F2
:1048300000984FF40052C263009840F60002C4F2A0
:104840000202026300980423436300988262009886
:104850000822C262009805228266009843F6000290
:10486000C4F2000282640098C166009880F84E107D
:10487000009880F84F10084601B0704780B588B0A6
:1048800001468DF81F009DF81F00012816D1FFE793
:1048900040F20040C4F20200022106900591FDF7AB
:1048A00005FA04210698FDF701FA06980599FDF727
:1048B000FDF906980599FDF75FFA29E09DF81F00BC
:1048C000022812D1FFE740F20040C4F202000221A8
:1048D00004900391FDF7EAF904210498FDF7E6F945
:1048E00004980399FDF748FA11E040F20040C4F241
:1048F0000200022102900191FDF7D8F904210298EB
:10490000FDF7D4F902980199FDF7D0F9FFE7FFE729
:1049100008B080BD81B00090002001B07047000059
:1049200081B00090002001B07047000080B58EB0CB
:104930000A460C908DF82F1012208DF82E000C983E
:1049400081780A9200F0F6FE0C990990084600F072
:104950002BFAFFE79DF82E00411E8DF82E1000283F
:1049600061D0FFE740F24800C2F2000000680C99F5
:104970006A4600231360AC224FF0530C089008469F
:1049800011466246DDF820C0E0470C99097D5329A5
:104990000ED1FFE70C98012101709DF82F000C99B2
:1049A00088710C98FFF7B0FD00218DF837104DE0AD
:1049B0000C98C07800280FD1FFE70C988078042865
:1049C00005DBFFE70C9881780139817003E00C98D2
:1049D00003218170FFE705E09DF82E0001388DF876
:1049E0002E00FFE70C98817800F0A4FE0C99896FE7
:1049F00002220790104688470C98406A01210690D1
:104A00000846069A059190470C98806F0599049086
:104A10000846049A90470C98406A05990390084606
:104A2000039A904796E70C98806F00210290084601
:104A3000029988470C98C169006A0190084601995B
:104A4000FDF79AF901208DF83700FFE79DF8370050
:104A50000EB080BD80B586B0059000208DF81300A3
:104A600040F24801C2F200010968059A6B461860DD
:104A7000AC234FF0800C0390104602911946624619
:104A8000039BDDF808C0E0478DF813009DF8130084
:104A9000002817D1FFE70598807900280BD0FFE7A1
:104AA000059800F003FD8DF813009DF81300803089
:104AB0008DF8130005E00598416A00790A308847AF
:104AC000FFE7FFE79DF8130006B080BD80B584B016
:104AD00003900398FFF75AFE0399C978002904D17F
:104AE000FFE703980F218170FFE703980021C17150
:104AF000039881810398FF22427103980170039803
:104B000081710398029100F05BFD029901900846C3
:104B100004B080BD2DE9F04798B017901798283061
:104B2000012109F06DFF179928310C90084609F012
:104B300075FF0DA928220B9008461146FBF778FB5C
:104B400000200D904FF482710E910F90179890F8FD
:104B50004E0000280BD1FFE7002010901798816BC2
:104B6000C06B0A9008460A99FDF7A0F802E00220FF
:104B70001090FFE7179890F84E00002803D1FFE748
:104B80000020119002E001201190FFE74FF4007027
:104B90001290382013900020149015900721169140
:104BA000179928310D9A0E9BDDF83CC0DDF840E0E6
:104BB000119C129D139E149FDDF85480DDF85890CF
:104BC000EA46CAF81890CAF81480CAF81070CAF8F1
:104BD0000C60CAF80850CAF80440CAF800E009900E
:104BE000084611461A46634609F020FF179901222C
:104BF0004A7009990890084618B0BDE8F08700008F
:104C0000B0B586B0DDF828C09E4614460D46059026
:104C10008DF813108DF812208DF811308DF810C01A
:104C200005980021C0F80E100598C0F812109DF8E4
:104C30001300059988739DF812000599C8739DF8B3
:104C40001100059908749DF810000599487405989D
:104C500000F1280100F10E021230042303900846EF
:104C60001146039ACDF808E00194009509F022FF5F
:104C700006B0B0BD80B58EB00C900B910A9209932E
:104C80000C9800280DD0FFE70C9840F23001C2F2DA
:104C900000010968884204D1FFE70C98FFF792FDF4
:104CA0001DE00C98002808D0FFE70C98002804D1DC
:104CB000FFE70C98FFF72EFE10E00C98002808D0B4
:104CC000FFE70C98002804D1FFE70C98FFF728FEB7
:104CD00003E001208DF8370062E0FFE7FFE70A9864
:104CE000002804D0FFE70A980C99486206E00C9867
:104CF00041F27961C0F600014162FFE70B9800289C
:104D000004D0FFE70B980C99086706E00C9841F275
:104D10008961C0F600010167FFE70998002804D007
:104D2000FFE709980C99486706E00C984FF2894113
:104D3000C0F600014167FFE70C98C069002826D043
:104D4000FFE70C98C06901210291FCF743FD0021A7
:104D5000089107910691059104910391029A04929A
:104D600005920691079208910C99096A03910C9992
:104D7000C96903AB01900846194607F0A7FF0C99D3
:104D8000CA69096A00901046FCF7F6FFFFE70C9825
:104D9000406F80470C99886100208DF83700FFE74D
:104DA0009DF837000EB080BD80B58CB00B900B988D
:104DB000016C406C01220A9008460A990992FDF79D
:104DC00041F80B98816BC06B089008460899FCF776
:104DD0006DFF0B98806F099907900846079A9047D6
:104DE0000B98816BC06B069008460699FCF75EFF36
:104DF0000B98806F099905900846059A90470B9883
:104E0000406A099904900846049A90470B98806F6D
:104E1000022103900846039988470B98406A099934
:104E200002900846029A90470B98806F099901906A
:104E30000846019A90470B98406A099900900846E5
:104E4000009A90470B98FF21417100200CB080BD63
:104E500080B586B01346059004918DF80F20002090
:104E60008DF80E008DF80D00FFE79DF80D009DF800
:104E70000F1088422FDAFFE740F24800C2F200002C
:104E8000006805999DF80D306A464FF0000CC2F895
:104E900000C038220290084611466246DDF808C07C
:104EA000E0478DF80E009DF80E00002806D0FFE7C1
:104EB0009DF80D0002308DF80E000CE00598407D45
:104EC00004994A1C04920870FFE79DF80D00013018
:104ED0008DF80D00C9E79DF80E0006B080BD0000FA
:104EE00010B586B0DDF820C09E46144605900491AA
:104EF0008DF80F208DF80E30ADF80CC000208DF825
:104F00000B00ADF80800FFE7BDF80800BDF80C1075
:104F100088423CDAFFE740F24800C2F20000006835
:104F200005999DF80F209DF80E30EC464FF0000ECD
:104F3000CCF800E04FF0A00C019008466146DDF887
:104F400004C0E0478DF80B009DF80B00002801D04D
:104F5000FFE71CE00598407D04994A1C0492087004
:104F60009DF80E0001308DF80E009DF80E0000280F
:104F700006D1FFE79DF80F0001308DF80F00FFE725
:104F8000FFE7BDF808000130ADF80800BCE79DF868
:104F90000B0006B010BD0000B0B588B09C46964628
:104FA00007900691ADF81620ADF8143007980699D1
:104FB000BDF81620130AD2B2BDF814406D462C601D
:104FC00004921A46049BCDF80CC0CDF808E0FFF718
:104FD00087FF08B0B0BD0000B0B58AB0DDF83CC0B6
:104FE000DDF838E01C461546089007918DF81B2027
:104FF0008DF81A308DF819E0ADF816C000208DF844
:105000001500ADF81200BDF81600C007002804D046
:10501000FFE702208DF82700AFE0BDF8160040083A
:10502000ADF816009DF81B00002811D0FFE7089886
:105030009DF81B1000F0B4FE8DF815009DF81500CA
:10504000002804D0FFE703208DF8270095E0FFE754
:105050000020ADF81200FFE7BDF81200BDF81610F1
:10506000884280F28580FFE740F24800C2F20000EB
:10507000006808999DF81A209DF81930EC464FF009
:10508000000ECCF800E04FF0200C0390084661467B
:10509000DDF80CC0E0478DF815009DF815000028DC
:1050A00004D0FFE704208DF8270066E00898407DD3
:1050B00007994A1C07920870FFE740F24800C2F2C5
:1050C0000000006808999DF81A209DF81930EC46F8
:1050D0004FF0000ECCF800E04FF0280C029008468C
:1050E0006146DDF808C0E0478DF815009DF8150011
:1050F000002804D0FFE705208DF827003DE0089840
:10510000407D07994A1C07920870FFE79DF8190037
:1051100001308DF819009DF81900002821D1FFE712
:105120009DF81A0001308DF81A009DF81A00002829
:1051300016D1FFE79DF81B0001308DF81B00089881
:105140009DF81B1000F02CFE8DF815009DF8150041
:10515000002804D0FFE706208DF827000DE0FFE7C8
:10516000FFE7FFE7BDF812000130ADF8120073E76A
:105170009DF815008DF82700FFE79DF827000AB07D
:10518000B0BD000080B588B09C460790069105929E
:10519000ADF8123007980699059ABDF81230EE4620
:1051A000CEF80430D3B2CEF80030C2F30743C2F3D6
:1051B000072203921A46039BCDF808C0FFF70CFFA5
:1051C00008B080BD80B58AB01346089007918DF86D
:1051D0001B2000208DF81A0040F24801C2F20001A5
:1051E0000968089AEC46CCF800004FF0500C059086
:1051F000104604916146059ADDF814C00393634696
:10520000DDF810E0F0478DF81A009DF81A0000282C
:1052100004D0FFE702208DF8270051E00898407D78
:1052200007994A1C0792087040F24800C2F2000039
:10523000006808996A460023136058224FF0080C52
:105240000290084611466246DDF808C0E0478DF836
:105250001A009DF81A00002804D0FFE703208DF8FB
:1052600027002DE00898407D07994A1C0792087096
:105270009DF81B0000281AD0FFE740F24800C2F258
:105280000000006808996A460023136050224FF01E
:10529000080C0190084611466246DDF804C0E0475C
:1052A0008DF81A000898407D0799087003E0079868
:1052B000FF210170FFE79DF81A008DF82700FFE736
:1052C0009DF827000AB080BD80B586B00590049196
:1052D00000208DF80F008DF80E00FFE79DF80E00FE
:1052E00002282FDCFFE740F24800C2F2000000680D
:1052F00005999DF80E306A464FF0000CC2F800C0C8
:1053000030220290084611466246DDF808C0E047A8
:105310008DF80F009DF80F00002806D0FFE79DF8DC
:105320000E0002308DF80F000CE00598407D0499C6
:105330004A1C04920870FFE79DF80E0001308DF8BA
:105340000E00CBE79DF80F0006B080BD80B586B09B
:105350000590049140F24800C2F2000000680599EF
:105360006A460023136058220290084611461A46E6
:10537000DDF808C0E0478DF80F000598407D0499DE
:1053800008709DF80F0006B080BD000080B588B0A1
:105390009C469646069005918DF81320ADF8103086
:1053A00000208DF80F008DF80E00BDF81000C0072A
:1053B000002804D0FFE702208DF81F0071E0BDF83F
:1053C00010004008ADF8100000208DF80E00FFE737
:1053D0009DF80E00BDF8101088425DDAFFE740F23C
:1053E0004800C2F20000006806999DF813209DF85D
:1053F0000E301A446B464FF0000CC3F800C0D3B215
:1054000030220290084611466246DDF808C0E047A7
:105410008DF80F009DF80F00002804D0FFE703204F
:105420008DF81F003DE00698407D05994A1C0592C5
:105430000870FFE740F24800C2F2000000680699D9
:105440009DF813209DF80E301A446B464FF0000C67
:10545000C3F800C0D3B23822019008461146624614
:10546000DDF804C0E0478DF80F009DF80F0000281C
:1054700004D0FFE704208DF81F0012E00698407D5D
:1054800005994A1C05920870FFE7FFE79DF80E009A
:1054900001308DF80E009BE79DF80F008DF81F007E
:1054A000FFE79DF81F0008B080BD000080B588B000
:1054B000079000208DF81B00059004900390029047
:1054C0000798406F002805D0FFE70798406F804796
:1054D0000490FFE7FFE740F24800C2F200000068D6
:1054E00007996A4600231360F0220190084611468E
:1054F0001A46DDF804C0E0478DF81B009DF81B003C
:10550000002801D0FFE747E00798407DC00700284A
:1055100004D1FFE700208DF81B003DE00798406FA5
:10552000002824D0FFE70798406F80470590059832
:105530000499884208D2FFE704980599C0430844BB
:1055400000210391029006E005980499401A002179
:1055500003910290FFE702980399653871F1000109
:1055600004D3FFE702208DF81B0015E00FE005983B
:1055700001300590059848F2A161C0F2010188420E
:1055800004D3FFE703208DF81B0005E0FFE7FFE7EA
:10559000FFE700F029FF9EE79DF81B0008B080BDE3
:1055A00080B582B0019001984FF4FA71C1820198E0
:1055B000406F804701998861002002B080BD0000E3
:1055C00080B582B000900098002810D0FFE70098C6
:1055D00040F23001C2F200010968884207D1FFE7BA
:1055E00044F28950C0F600000AF070F823E00098F9
:1055F00000280BD0FFE70098002807D1FFE744F20E
:105600009D50C0F600000AF061F813E000980028F1
:105610000BD0FFE70098002807D1FFE744F2A9501C
:10562000C0F600000AF052F803E001208DF80700F0
:1056300005E0FFE7FFE700208DF80700FFE79DF892
:10564000070002B080BD000080B586B005900598C7
:105650002830012109F0D4F9059928310490084631
:1056600009F046FA059991F84E10002909D1FFE793
:105670000598816BC06B039008460399FCF716FBF5
:1056800008E00598816BC06B029008460299FCF710
:1056900073FBFFE70598816AC06A0190084601998B
:1056A000FCF704FB0598016B406B009008460099DD
:1056B000FCF7FCFA059801214170002006B080BD7E
:1056C000B0B586B0DDF828C09E4614460D4605905C
:1056D0008DF813108DF812208DF811308DF810C050
:1056E00005980021C0F80E100598C0F812109DF81A
:1056F0001300059988739DF812000599C8739DF8E9
:105700001100059908749DF81000059948740598D2
:1057100000F1280100F10E02123004230390084624
:105720001146039ACDF808E00194009509F0F2F9CA
:1057300006B0B0BD80B586B00A4605908DF813104E
:105740009DF81300013801461128039100F2A7804B
:105750000399DFE801F009131D262F38414A535CF5
:10576000646C747C848C949C0598002180F84D10A6
:1057700005984FF47A71A0F8621098E0059800211E
:1057800080F84D1005984FF4FA71A0F862108EE081
:105790000598002180F84D100598FA21A0F86210B4
:1057A00085E00598002180F84D1005987C21A0F82F
:1057B00062107CE00598002180F84D1005983C218E
:1057C000A0F8621073E00598002180F84D1005984C
:1057D0001C21A0F862106AE00598002180F84D10A5
:1057E00005980C21A0F8621061E00598002180F86E
:1057F0004D1005980421A0F8621058E0059800218A
:1058000080F84D1005980321A0F862104FE005982C
:10581000002180F84D100598A0F8621047E0059827
:10582000012180F84D100598382141663FE0059828
:10583000012180F84D1005983021416637E0059828
:10584000012180F84D100598282141662FE0059828
:10585000012180F84D1005982021416627E0059828
:10586000012180F84D100598182141661FE0059828
:10587000012180F84D1005981021416617E0059828
:10588000012180F84D100598082141660FE0059828
:10589000012180F84D1005980021416607E0059828
:1058A000012180F84D10059838214166FFE70598E1
:1058B00090F84D00012831D1FFE705984078002885
:1058C0000CD0FFE740F24800C2F20000006845F249
:1058D000C161C0F60001884204D1FFE70598FFF7D7
:1058E00019F9FFE7059880780F2804DBFFE7059892
:1058F00020214166FFE7059800F12801406E0290E3
:105900000846029909F0EAF840F24801C2F20001A3
:1059100044F60142C0F600020A6028E0059840788B
:1059200000280CD0FFE740F24800C2F200000068F7
:1059300044F60141C0F60001884204D1FFE7059812
:10594000FFF782FEFFE7059800F12801B0F862003A
:1059500001900846019909F0D3F840F24801C2F2DB
:10596000000145F2C162C0F600020A60FFE7059837
:10597000C169006A009008460099FCF797F9002079
:1059800006B080BD82B0019000910098411C00914A
:105990000078019908810198008900994A1C0092B9
:1059A000097841EA0020019908810098411C009182
:1059B0000078019948810198408900994A1C009219
:1059C000097841EA0020019948810098411C009122
:1059D00000780199C871002002B0704780B584B08A
:1059E0000A460390ADF80A10BDF80A000399C88270
:1059F0000398406F0192804703998861002004B0AA
:105A000080BD000082B00A4601908DF803109DF819
:105A10000300122805DBFFE79DF8030012280DD1D3
:105A2000FFE79DF80300012808DBFFE7019801214B
:105A3000C1709DF803000199887006E0019800216B
:105A4000C17001980F218170FFE7002002B07047FC
:105A5000B0B588B013468C4607908DF81B108DF8B2
:105A60001A2000208DF8190040F24801C2F200010E
:105A70000968079A9DF81BE09DF81A406D4628605A
:105A8000C22005901046059A049111467246039370
:105A90002346DDF810E0CDF808C0F0478DF8190076
:105AA0009DF81900002817D1FFE707988079002892
:105AB0000BD0FFE70798FFF7F9FC8DF819009DF868
:105AC000190080308DF8190005E00798416A0079C7
:105AD0000A308847FFE7FFE79DF8190008B0B0BD1E
